{
  "contractName": "Diamonds",
  "abi": [
    {
      "inputs": [],
      "stateMutability": "nonpayable",
      "type": "constructor"
    },
    {
      "anonymous": false,
      "inputs": [
        {
          "indexed": true,
          "internalType": "address",
          "name": "_owner",
          "type": "address"
        },
        {
          "indexed": true,
          "internalType": "address",
          "name": "_approved",
          "type": "address"
        },
        {
          "indexed": true,
          "internalType": "uint256",
          "name": "_tokenId",
          "type": "uint256"
        }
      ],
      "name": "Approval",
      "type": "event"
    },
    {
      "anonymous": false,
      "inputs": [
        {
          "indexed": true,
          "internalType": "address",
          "name": "previousOwner",
          "type": "address"
        },
        {
          "indexed": true,
          "internalType": "address",
          "name": "newOwner",
          "type": "address"
        }
      ],
      "name": "OwnershipTransferred",
      "type": "event"
    },
    {
      "anonymous": false,
      "inputs": [
        {
          "indexed": true,
          "internalType": "address",
          "name": "_from",
          "type": "address"
        },
        {
          "indexed": true,
          "internalType": "address",
          "name": "_to",
          "type": "address"
        },
        {
          "indexed": true,
          "internalType": "uint256",
          "name": "_tokenId",
          "type": "uint256"
        }
      ],
      "name": "Transfer",
      "type": "event"
    },
    {
      "inputs": [
        {
          "internalType": "address",
          "name": "_owner",
          "type": "address"
        }
      ],
      "name": "balanceOf",
      "outputs": [
        {
          "internalType": "uint256",
          "name": "",
          "type": "uint256"
        }
      ],
      "stateMutability": "view",
      "type": "function",
      "constant": true
    },
    {
      "inputs": [
        {
          "internalType": "uint256",
          "name": "",
          "type": "uint256"
        }
      ],
      "name": "diamonds",
      "outputs": [
        {
          "internalType": "string",
          "name": "chemistry",
          "type": "string"
        },
        {
          "internalType": "uint256",
          "name": "diamondId",
          "type": "uint256"
        }
      ],
      "stateMutability": "view",
      "type": "function",
      "constant": true
    },
    {
      "inputs": [],
      "name": "name",
      "outputs": [
        {
          "internalType": "string",
          "name": "",
          "type": "string"
        }
      ],
      "stateMutability": "view",
      "type": "function",
      "constant": true
    },
    {
      "inputs": [],
      "name": "owner",
      "outputs": [
        {
          "internalType": "address",
          "name": "",
          "type": "address"
        }
      ],
      "stateMutability": "view",
      "type": "function",
      "constant": true
    },
    {
      "inputs": [
        {
          "internalType": "uint256",
          "name": "_tokenId",
          "type": "uint256"
        }
      ],
      "name": "ownerOf",
      "outputs": [
        {
          "internalType": "address",
          "name": "",
          "type": "address"
        }
      ],
      "stateMutability": "view",
      "type": "function",
      "constant": true
    },
    {
      "inputs": [],
      "name": "renounceOwnership",
      "outputs": [],
      "stateMutability": "nonpayable",
      "type": "function"
    },
    {
      "inputs": [
        {
          "internalType": "bytes4",
          "name": "interfaceId",
          "type": "bytes4"
        }
      ],
      "name": "supportsInterface",
      "outputs": [
        {
          "internalType": "bool",
          "name": "",
          "type": "bool"
        }
      ],
      "stateMutability": "view",
      "type": "function",
      "constant": true
    },
    {
      "inputs": [],
      "name": "symbol",
      "outputs": [
        {
          "internalType": "string",
          "name": "",
          "type": "string"
        }
      ],
      "stateMutability": "view",
      "type": "function",
      "constant": true
    },
    {
      "inputs": [
        {
          "internalType": "uint256",
          "name": "_index",
          "type": "uint256"
        }
      ],
      "name": "tokenByIndex",
      "outputs": [
        {
          "internalType": "uint256",
          "name": "",
          "type": "uint256"
        }
      ],
      "stateMutability": "view",
      "type": "function",
      "constant": true
    },
    {
      "inputs": [
        {
          "internalType": "address",
          "name": "_owner",
          "type": "address"
        },
        {
          "internalType": "uint256",
          "name": "_index",
          "type": "uint256"
        }
      ],
      "name": "tokenOfOwnerByIndex",
      "outputs": [
        {
          "internalType": "uint256",
          "name": "",
          "type": "uint256"
        }
      ],
      "stateMutability": "view",
      "type": "function",
      "constant": true
    },
    {
      "inputs": [
        {
          "internalType": "address",
          "name": "_owner",
          "type": "address"
        }
      ],
      "name": "tokensOfOwner",
      "outputs": [
        {
          "internalType": "uint256[]",
          "name": "",
          "type": "uint256[]"
        }
      ],
      "stateMutability": "view",
      "type": "function",
      "constant": true
    },
    {
      "inputs": [],
      "name": "totalSupply",
      "outputs": [
        {
          "internalType": "uint256",
          "name": "",
          "type": "uint256"
        }
      ],
      "stateMutability": "view",
      "type": "function",
      "constant": true
    },
    {
      "inputs": [
        {
          "internalType": "address",
          "name": "_from",
          "type": "address"
        },
        {
          "internalType": "address",
          "name": "_to",
          "type": "address"
        },
        {
          "internalType": "uint256",
          "name": "_tokenId",
          "type": "uint256"
        }
      ],
      "name": "transferFrom",
      "outputs": [],
      "stateMutability": "nonpayable",
      "type": "function"
    },
    {
      "inputs": [
        {
          "internalType": "address",
          "name": "newOwner",
          "type": "address"
        }
      ],
      "name": "transferOwnership",
      "outputs": [],
      "stateMutability": "nonpayable",
      "type": "function"
    },
    {
      "inputs": [
        {
          "internalType": "string",
          "name": "_diamond",
          "type": "string"
        }
      ],
      "name": "mint",
      "outputs": [],
      "stateMutability": "nonpayable",
      "type": "function"
    }
  ],
  "bytecode": "0x60806040523480156200001157600080fd5b506040518060400160405280600d81526020017f4469616d6f6e642048616e6473000000000000000000000000000000000000008152506040518060400160405280600281526020017f44480000000000000000000000000000000000000000000000000000000000008152508181620000b17f01ffc9a7a5cef8baa21ed3c5c0d7e23accb804b619e9333b597f47a0d84076e26200024a60201b60201c565b620001047f13b182f4c0e5b2efbac0efe6cf6d756c8b89f4b79c5707a043ed9ea740574ee97f7feaf19471f34a12a7eaf32d5f3090aa2260ea8624dc8a138e74e0bf0f623076186200024a60201b60201c565b81600190805190602001906200011c929190620003f0565b50806002908051906020019062000135929190620003f0565b505050620001ad7f22c82707ba960a14c7592ffb6b8cfaa073fed0048a84cc7fa41f6b5bd8e7f2e47f3a6eb71757dfc6e784c1459d26270140c2c147d95ca985c80026fc5301c3eca17f8a7e378434598edc36d108689a030cbc9d7d465de4f74c71bae1028eed6a881b18186200024a60201b60201c565b620002227f8230223f691b981717299fae9549350a0d894555723531f02108b1f522c1a7977f6da5e1284143cdd2d15038a59bde3be031250f00291d64494c12d967b3a4e0c37fc53637662700e6c65104059db8bba34439e0c32483ab7c34e3ccae52c739549518186200024a60201b60201c565b62000242620002366200032260201b60201c565b6200032a60201b60201c565b505062000588565b63ffffffff60e01b817bffffffffffffffffffffffffffffffffffffffffffffffffffffffff19161415620002b6576040517f08c379a0000000000000000000000000000000000000000000000000000000008152600401620002ad9062000501565b60405180910390fd5b6001600080837bffffffffffffffffffffffffffffffffffffffffffffffffffffffff19167bffffffffffffffffffffffffffffffffffffffffffffffffffffffff1916815260200190815260200160002060006101000a81548160ff02191690831515021790555050565b600033905090565b6000600960009054906101000a900473ffffffffffffffffffffffffffffffffffffffff16905081600960006101000a81548173ffffffffffffffffffffffffffffffffffffffff021916908373ffffffffffffffffffffffffffffffffffffffff1602179055508173ffffffffffffffffffffffffffffffffffffffff168173ffffffffffffffffffffffffffffffffffffffff167f8be0079c531659141344cd1fd0a4f28419497f9722a3daafe3b4186f6b6457e060405160405180910390a35050565b828054620003fe9062000552565b90600052602060002090601f0160209004810192826200042257600085556200046e565b82601f106200043d57805160ff19168380011785556200046e565b828001600101855582156200046e579182015b828111156200046d57825182559160200191906001019062000450565b5b5090506200047d919062000481565b5090565b5b808211156200049c57600081600090555060010162000482565b5090565b600082825260208201905092915050565b7f496e76616c696420726571756573742e00000000000000000000000000000000600082015250565b6000620004e9601083620004a0565b9150620004f682620004b1565b602082019050919050565b600060208201905081810360008301526200051c81620004da565b9050919050565b7f4e487b7100000000000000000000000000000000000000000000000000000000600052602260045260246000fd5b600060028204905060018216806200056b57607f821691505b6020821081141562000582576200058162000523565b5b50919050565b61245380620005986000396000f3fe608060405234801561001057600080fd5b50600436106100f55760003560e01c80636352211e116100975780638da5cb5b116100665780638da5cb5b146102ad57806395d89b41146102cb578063d85d3d27146102e9578063f2fde38b14610305576100f5565b80636352211e1461021357806370a0823114610243578063715018a6146102735780638462151c1461027d576100f5565b806323b872dd116100d357806323b872dd146101665780632f745c59146101825780633951e09b146101b25780634f6ccce7146101e3576100f5565b806301ffc9a7146100fa57806306fdde031461012a57806318160ddd14610148575b600080fd5b610114600480360381019061010f91906116dd565b610321565b6040516101219190611725565b60405180910390f35b610132610388565b60405161013f91906117d9565b60405180910390f35b61015061041a565b60405161015d9190611814565b60405180910390f35b610180600480360381019061017b91906118b9565b610427565b005b61019c6004803603810190610197919061190c565b610437565b6040516101a99190611814565b60405180910390f35b6101cc60048036038101906101c7919061194c565b6104e7565b6040516101da929190611979565b60405180910390f35b6101fd60048036038101906101f8919061194c565b6105a3565b60405161020a9190611814565b60405180910390f35b61022d6004803603810190610228919061194c565b610614565b60405161023a91906119b8565b60405180910390f35b61025d600480360381019061025891906119d3565b6106f3565b60405161026a9190611814565b60405180910390f35b61027b6107b2565b005b610297600480360381019061029291906119d3565b61083a565b6040516102a49190611abe565b60405180910390f35b6102b56108d1565b6040516102c291906119b8565b60405180910390f35b6102d36108fb565b6040516102e091906117d9565b60405180910390f35b61030360048036038101906102fe9190611c15565b61098d565b005b61031f600480360381019061031a91906119d3565b610b33565b005b6000806000837bffffffffffffffffffffffffffffffffffffffffffffffffffffffff19167bffffffffffffffffffffffffffffffffffffffffffffffffffffffff1916815260200190815260200160002060009054906101000a900460ff169050919050565b60606001805461039790611c8d565b80601f01602080910402602001604051908101604052809291908181526020018280546103c390611c8d565b80156104105780601f106103e557610100808354040283529160200191610410565b820191906000526020600020905b8154815290600101906020018083116103f357829003601f168201915b5050505050905090565b6000600580549050905090565b610432838383610c2b565b505050565b6000610442836106f3565b8210610483576040517f08c379a000000000000000000000000000000000000000000000000000000000815260040161047a90611d0b565b60405180910390fd5b600760008473ffffffffffffffffffffffffffffffffffffffff1673ffffffffffffffffffffffffffffffffffffffff16815260200190815260200160002082815481106104d4576104d3611d2b565b5b9060005260206000200154905092915050565b600a81815481106104f757600080fd5b906000526020600020906002020160009150905080600001805461051a90611c8d565b80601f016020809104026020016040519081016040528092919081815260200182805461054690611c8d565b80156105935780601f1061056857610100808354040283529160200191610593565b820191906000526020600020905b81548152906001019060200180831161057657829003601f168201915b5050505050908060010154905082565b60006105ad61041a565b82106105ee576040517f08c379a00000000000000000000000000000000000000000000000000000000081526004016105e590611da6565b60405180910390fd5b6005828154811061060257610601611d2b565b5b90600052602060002001549050919050565b60008073ffffffffffffffffffffffffffffffffffffffff166003600084815260200190815260200160002060009054906101000a900473ffffffffffffffffffffffffffffffffffffffff1673ffffffffffffffffffffffffffffffffffffffff1614156106b8576040517f08c379a00000000000000000000000000000000000000000000000000000000081526004016106af90611e38565b60405180910390fd5b6003600083815260200190815260200160002060009054906101000a900473ffffffffffffffffffffffffffffffffffffffff169050919050565b60008073ffffffffffffffffffffffffffffffffffffffff168273ffffffffffffffffffffffffffffffffffffffff161415610764576040517f08c379a000000000000000000000000000000000000000000000000000000000815260040161075b90611ea4565b60405180910390fd5b6107ab600460008473ffffffffffffffffffffffffffffffffffffffff1673ffffffffffffffffffffffffffffffffffffffff168152602001908152602001600020610c46565b9050919050565b6107ba610c54565b73ffffffffffffffffffffffffffffffffffffffff166107d86108d1565b73ffffffffffffffffffffffffffffffffffffffff161461082e576040517f08c379a000000000000000000000000000000000000000000000000000000000815260040161082590611f10565b60405180910390fd5b6108386000610c5c565b565b6060600760008373ffffffffffffffffffffffffffffffffffffffff1673ffffffffffffffffffffffffffffffffffffffff1681526020019081526020016000208054806020026020016040519081016040528092919081815260200182805480156108c557602002820191906000526020600020905b8154815260200190600101908083116108b1575b50505050509050919050565b6000600960009054906101000a900473ffffffffffffffffffffffffffffffffffffffff16905090565b60606002805461090a90611c8d565b80601f016020809104026020016040519081016040528092919081815260200182805461093690611c8d565b80156109835780601f1061095857610100808354040283529160200191610983565b820191906000526020600020905b81548152906001019060200180831161096657829003601f168201915b5050505050905090565b610995610c54565b73ffffffffffffffffffffffffffffffffffffffff166109b36108d1565b73ffffffffffffffffffffffffffffffffffffffff1614610a09576040517f08c379a0000000000000000000000000000000000000000000000000000000008152600401610a0090611f10565b60405180910390fd5b600b81604051610a199190611f6c565b908152602001604051809103902060009054906101000a900460ff1615610a75576040517f08c379a0000000000000000000000000000000000000000000000000000000008152600401610a6c90611ff5565b60405180910390fd5b6000600a80549050905060006040518060400160405280848152602001838152509050600a8190806001815401808255809150506001900390600052602060002090600202016000909190919091506000820151816000019080519060200190610ae09291906115ce565b50602082015181600101555050610af73383610d22565b6001600b84604051610b099190611f6c565b908152602001604051809103902060006101000a81548160ff021916908315150217905550505050565b610b3b610c54565b73ffffffffffffffffffffffffffffffffffffffff16610b596108d1565b73ffffffffffffffffffffffffffffffffffffffff1614610baf576040517f08c379a0000000000000000000000000000000000000000000000000000000008152600401610ba690611f10565b60405180910390fd5b600073ffffffffffffffffffffffffffffffffffffffff168173ffffffffffffffffffffffffffffffffffffffff161415610c1f576040517f08c379a0000000000000000000000000000000000000000000000000000000008152600401610c1690612087565b60405180910390fd5b610c2881610c5c565b50565b610c36838383610d43565b610c41838383610f69565b505050565b600081600001549050919050565b600033905090565b6000600960009054906101000a900473ffffffffffffffffffffffffffffffffffffffff16905081600960006101000a81548173ffffffffffffffffffffffffffffffffffffffff021916908373ffffffffffffffffffffffffffffffffffffffff1602179055508173ffffffffffffffffffffffffffffffffffffffff168173ffffffffffffffffffffffffffffffffffffffff167f8be0079c531659141344cd1fd0a4f28419497f9722a3daafe3b4186f6b6457e060405160405180910390a35050565b610d2c82826111fb565b610d35816113ad565b610d3f82826113f6565b5050565b600073ffffffffffffffffffffffffffffffffffffffff168273ffffffffffffffffffffffffffffffffffffffff161415610db3576040517f08c379a0000000000000000000000000000000000000000000000000000000008152600401610daa90612119565b60405180910390fd5b8273ffffffffffffffffffffffffffffffffffffffff16610dd382610614565b73ffffffffffffffffffffffffffffffffffffffff1614610e29576040517f08c379a0000000000000000000000000000000000000000000000000000000008152600401610e20906121ab565b60405180910390fd5b610e70600460008573ffffffffffffffffffffffffffffffffffffffff1673ffffffffffffffffffffffffffffffffffffffff1681526020019081526020016000206114ba565b610eb7600460008473ffffffffffffffffffffffffffffffffffffffff1673ffffffffffffffffffffffffffffffffffffffff1681526020019081526020016000206114dd565b816003600083815260200190815260200160002060006101000a81548173ffffffffffffffffffffffffffffffffffffffff021916908373ffffffffffffffffffffffffffffffffffffffff160217905550808273ffffffffffffffffffffffffffffffffffffffff168473ffffffffffffffffffffffffffffffffffffffff167fddf252ad1be2c89b69c2b068fc378daa952ba7f163c4a11628f55a4df523b3ef60405160405180910390a4505050565b6001600760008573ffffffffffffffffffffffffffffffffffffffff1673ffffffffffffffffffffffffffffffffffffffff1681526020019081526020016000208054905011156110d157600760008473ffffffffffffffffffffffffffffffffffffffff1673ffffffffffffffffffffffffffffffffffffffff1681526020019081526020016000206001600760008673ffffffffffffffffffffffffffffffffffffffff1673ffffffffffffffffffffffffffffffffffffffff1681526020019081526020016000208054905061104291906121fa565b8154811061105357611052611d2b565b5b9060005260206000200154600760008573ffffffffffffffffffffffffffffffffffffffff1673ffffffffffffffffffffffffffffffffffffffff1681526020019081526020016000206008600084815260200190815260200160002054815481106110c2576110c1611d2b565b5b90600052602060002001819055505b600760008473ffffffffffffffffffffffffffffffffffffffff1673ffffffffffffffffffffffffffffffffffffffff1681526020019081526020016000208054806111205761111f61222e565b5b60019003818190600052602060002001600090559055600760008373ffffffffffffffffffffffffffffffffffffffff1673ffffffffffffffffffffffffffffffffffffffff168152602001908152602001600020805490506008600083815260200190815260200160002081905550600760008373ffffffffffffffffffffffffffffffffffffffff1673ffffffffffffffffffffffffffffffffffffffff168152602001908152602001600020819080600181540180825580915050600190039060005260206000200160009091909190915055505050565b600073ffffffffffffffffffffffffffffffffffffffff168273ffffffffffffffffffffffffffffffffffffffff16141561126b576040517f08c379a0000000000000000000000000000000000000000000000000000000008152600401611262906122a9565b60405180910390fd5b61127481611503565b156112b4576040517f08c379a00000000000000000000000000000000000000000000000000000000081526004016112ab90612315565b60405180910390fd5b816003600083815260200190815260200160002060006101000a81548173ffffffffffffffffffffffffffffffffffffffff021916908373ffffffffffffffffffffffffffffffffffffffff16021790555061134d600460008473ffffffffffffffffffffffffffffffffffffffff1673ffffffffffffffffffffffffffffffffffffffff1681526020019081526020016000206114dd565b808273ffffffffffffffffffffffffffffffffffffffff16600073ffffffffffffffffffffffffffffffffffffffff167fddf252ad1be2c89b69c2b068fc378daa952ba7f163c4a11628f55a4df523b3ef60405160405180910390a45050565b6005805490506006600083815260200190815260200160002081905550600581908060018154018082558091505060019003906000526020600020016000909190919091505550565b600760008373ffffffffffffffffffffffffffffffffffffffff1673ffffffffffffffffffffffffffffffffffffffff168152602001908152602001600020805490506008600083815260200190815260200160002081905550600760008373ffffffffffffffffffffffffffffffffffffffff1673ffffffffffffffffffffffffffffffffffffffff1681526020019081526020016000208190806001815401808255809150506001900390600052602060002001600090919091909150555050565b6114d26001826000015461157590919063ffffffff16565b816000018190555050565b60018160000160008282546114f29190612335565b925050819055816000018190555050565b6000806003600084815260200190815260200160002060009054906101000a900473ffffffffffffffffffffffffffffffffffffffff169050600073ffffffffffffffffffffffffffffffffffffffff168173ffffffffffffffffffffffffffffffffffffffff161415915050919050565b6000828211156115ba576040517f08c379a00000000000000000000000000000000000000000000000000000000081526004016115b1906123fd565b60405180910390fd5b81836115c691906121fa565b905092915050565b8280546115da90611c8d565b90600052602060002090601f0160209004810192826115fc5760008555611643565b82601f1061161557805160ff1916838001178555611643565b82800160010185558215611643579182015b82811115611642578251825591602001919060010190611627565b5b5090506116509190611654565b5090565b5b8082111561166d576000816000905550600101611655565b5090565b6000604051905090565b600080fd5b600080fd5b60007fffffffff0000000000000000000000000000000000000000000000000000000082169050919050565b6116ba81611685565b81146116c557600080fd5b50565b6000813590506116d7816116b1565b92915050565b6000602082840312156116f3576116f261167b565b5b6000611701848285016116c8565b91505092915050565b60008115159050919050565b61171f8161170a565b82525050565b600060208201905061173a6000830184611716565b92915050565b600081519050919050565b600082825260208201905092915050565b60005b8381101561177a57808201518184015260208101905061175f565b83811115611789576000848401525b50505050565b6000601f19601f8301169050919050565b60006117ab82611740565b6117b5818561174b565b93506117c581856020860161175c565b6117ce8161178f565b840191505092915050565b600060208201905081810360008301526117f381846117a0565b905092915050565b6000819050919050565b61180e816117fb565b82525050565b60006020820190506118296000830184611805565b92915050565b600073ffffffffffffffffffffffffffffffffffffffff82169050919050565b600061185a8261182f565b9050919050565b61186a8161184f565b811461187557600080fd5b50565b60008135905061188781611861565b92915050565b611896816117fb565b81146118a157600080fd5b50565b6000813590506118b38161188d565b92915050565b6000806000606084860312156118d2576118d161167b565b5b60006118e086828701611878565b93505060206118f186828701611878565b9250506040611902868287016118a4565b9150509250925092565b600080604083850312156119235761192261167b565b5b600061193185828601611878565b9250506020611942858286016118a4565b9150509250929050565b6000602082840312156119625761196161167b565b5b6000611970848285016118a4565b91505092915050565b6000604082019050818103600083015261199381856117a0565b90506119a26020830184611805565b9392505050565b6119b28161184f565b82525050565b60006020820190506119cd60008301846119a9565b92915050565b6000602082840312156119e9576119e861167b565b5b60006119f784828501611878565b91505092915050565b600081519050919050565b600082825260208201905092915050565b6000819050602082019050919050565b611a35816117fb565b82525050565b6000611a478383611a2c565b60208301905092915050565b6000602082019050919050565b6000611a6b82611a00565b611a758185611a0b565b9350611a8083611a1c565b8060005b83811015611ab1578151611a988882611a3b565b9750611aa383611a53565b925050600181019050611a84565b5085935050505092915050565b60006020820190508181036000830152611ad88184611a60565b905092915050565b600080fd5b600080fd5b7f4e487b7100000000000000000000000000000000000000000000000000000000600052604160045260246000fd5b611b228261178f565b810181811067ffffffffffffffff82111715611b4157611b40611aea565b5b80604052505050565b6000611b54611671565b9050611b608282611b19565b919050565b600067ffffffffffffffff821115611b8057611b7f611aea565b5b611b898261178f565b9050602081019050919050565b82818337600083830152505050565b6000611bb8611bb384611b65565b611b4a565b905082815260208101848484011115611bd457611bd3611ae5565b5b611bdf848285611b96565b509392505050565b600082601f830112611bfc57611bfb611ae0565b5b8135611c0c848260208601611ba5565b91505092915050565b600060208284031215611c2b57611c2a61167b565b5b600082013567ffffffffffffffff811115611c4957611c48611680565b5b611c5584828501611be7565b91505092915050565b7f4e487b7100000000000000000000000000000000000000000000000000000000600052602260045260246000fd5b60006002820490506001821680611ca557607f821691505b60208210811415611cb957611cb8611c5e565b5b50919050565b7f4f776e657220696e646578206973206f7574206f6620626f756e64732e000000600082015250565b6000611cf5601d8361174b565b9150611d0082611cbf565b602082019050919050565b60006020820190508181036000830152611d2481611ce8565b9050919050565b7f4e487b7100000000000000000000000000000000000000000000000000000000600052603260045260246000fd5b7f496e646578206973206f7574206f6620626f756e64732e000000000000000000600082015250565b6000611d9060178361174b565b9150611d9b82611d5a565b602082019050919050565b60006020820190508181036000830152611dbf81611d83565b9050919050565b7f4e46542063616e2774206265206f776e6564206279207a65726f20616464726560008201527f73732e0000000000000000000000000000000000000000000000000000000000602082015250565b6000611e2260238361174b565b9150611e2d82611dc6565b604082019050919050565b60006020820190508181036000830152611e5181611e15565b9050919050565b7f43616e277420626520746865207a65726f20616464726573732e000000000000600082015250565b6000611e8e601a8361174b565b9150611e9982611e58565b602082019050919050565b60006020820190508181036000830152611ebd81611e81565b9050919050565b7f4f776e61626c653a2063616c6c6572206973206e6f7420746865206f776e6572600082015250565b6000611efa60208361174b565b9150611f0582611ec4565b602082019050919050565b60006020820190508181036000830152611f2981611eed565b9050919050565b600081905092915050565b6000611f4682611740565b611f508185611f30565b9350611f6081856020860161175c565b80840191505092915050565b6000611f788284611f3b565b915081905092915050565b7f536f7272792c207468617420746f6b656e20616c72656164792065786973747360008201527f2e00000000000000000000000000000000000000000000000000000000000000602082015250565b6000611fdf60218361174b565b9150611fea82611f83565b604082019050919050565b6000602082019050818103600083015261200e81611fd2565b9050919050565b7f4f776e61626c653a206e6577206f776e657220697320746865207a65726f206160008201527f6464726573730000000000000000000000000000000000000000000000000000602082015250565b600061207160268361174b565b915061207c82612015565b604082019050919050565b600060208201905081810360008301526120a081612064565b9050919050565b7f4e46542063616e2774207472616e7366657220746f207a65726f20616464726560008201527f73732e0000000000000000000000000000000000000000000000000000000000602082015250565b600061210360238361174b565b915061210e826120a7565b604082019050919050565b60006020820190508181036000830152612132816120f6565b9050919050565b7f5f66726f6d2061646472657373206973206e6f7420746865206f776e6572206f60008201527f662074686520746f6b656e2e0000000000000000000000000000000000000000602082015250565b6000612195602c8361174b565b91506121a082612139565b604082019050919050565b600060208201905081810360008301526121c481612188565b9050919050565b7f4e487b7100000000000000000000000000000000000000000000000000000000600052601160045260246000fd5b6000612205826117fb565b9150612210836117fb565b925082821015612223576122226121cb565b5b828203905092915050565b7f4e487b7100000000000000000000000000000000000000000000000000000000600052603160045260246000fd5b7f4e46542063616e2774206d696e7420746f207a65726f20616464726573732e00600082015250565b6000612293601f8361174b565b915061229e8261225d565b602082019050919050565b600060208201905081810360008301526122c281612286565b9050919050565b7f546f6b656e20697320616c7265616479206d696e746564210000000000000000600082015250565b60006122ff60188361174b565b915061230a826122c9565b602082019050919050565b6000602082019050818103600083015261232e816122f2565b9050919050565b6000612340826117fb565b915061234b836117fb565b9250827fffffffffffffffffffffffffffffffffffffffffffffffffffffffffffffffff038211156123805761237f6121cb565b5b828201905092915050565b7f5375627472616374696f6e206f766572666c6f77206572726f7220766961205360008201527f6166654d61746800000000000000000000000000000000000000000000000000602082015250565b60006123e760278361174b565b91506123f28261238b565b604082019050919050565b60006020820190508181036000830152612416816123da565b905091905056fea26469706673582212204ef42afe3d0ec5d605b5590c25feb3c9eab37360a59b7ef2ce14a5ab6aeb91e464736f6c634300080a0033",
  "immutableReferences": {},
  "source": "// SPDX-License-Identifier: MIT\npragma solidity ^0.8.0;\n\nimport './ERC721Connector.sol';\n\ncontract Diamonds is ERC721Connector {\n\n    struct Diamond {\n        string chemistry;\n        uint256 diamondId;\n    }\n\n    Diamond[] public diamonds;\n\n    mapping(string => bool) diamondExists;\n\n    function mint(string memory _diamond) public onlyOwner {\n        require(!diamondExists[_diamond], \"Sorry, that token already exists.\");\n\n        uint256 _tokenId = diamonds.length;\n\n        Diamond memory diamond = Diamond({\n            chemistry: _diamond,\n            diamondId: _tokenId\n        });\n\n        diamonds.push(diamond);\n\n        _mint(msg.sender, _tokenId);\n        diamondExists[_diamond] = true;\n\n    }\n\n    constructor() ERC721Connector('Diamond Hands', 'DH') {}\n\n}",
  "sourcePath": "/Users/majikk/Desktop/ConsenSys/blockchain-developer-bootcamp-final-project/src/contracts/Diamonds.sol",
  "compiler": {
    "name": "solc",
    "version": "0.8.10+commit.fc410830.Emscripten.clang"
  },
  "schemaVersion": "3.4.3",
  "updatedAt": "2021-11-16T22:00:40.055Z",
  "networkType": "ethereum",
  "devdoc": {
    "kind": "dev",
    "methods": {
      "balanceOf(address)": {
        "details": "NFTs assigned to the zero address are considered invalid, and this  function throws for queries about the zero address.",
        "params": {
          "_owner": "An address for whom to query the balance"
        },
        "returns": {
          "_0": "The number of NFTs owned by `_owner`, possibly zero"
        }
      },
      "owner()": {
        "details": "Returns the address of the current owner."
      },
      "ownerOf(uint256)": {
        "details": "NFTs assigned to zero address are considered invalid, and queries  about them do throw.",
        "params": {
          "_tokenId": "The identifier for an NFT"
        },
        "returns": {
          "_0": "The address of the owner of the NFT"
        }
      },
      "renounceOwnership()": {
        "details": "Leaves the contract without owner. It will not be possible to call `onlyOwner` functions anymore. Can only be called by the current owner. NOTE: Renouncing ownership will leave the contract without an owner, thereby removing any functionality that is only available to the owner."
      },
      "tokenByIndex(uint256)": {
        "details": "Throws if `_index` >= `totalSupply()`.",
        "params": {
          "_index": "A counter less than `totalSupply()`"
        },
        "returns": {
          "_0": "The token identifier for the `_index`th NFT,  (sort order not specified)"
        }
      },
      "tokenOfOwnerByIndex(address,uint256)": {
        "details": "Throws if `_index` >= `balanceOf(_owner)` or if  `_owner` is the zero address, representing invalid NFTs.",
        "params": {
          "_index": "A counter less than `balanceOf(_owner)`",
          "_owner": "An address where we are interested in NFTs owned by them"
        },
        "returns": {
          "_0": "The token identifier for the `_index`th NFT assigned to `_owner`,   (sort order not specified)"
        }
      },
      "totalSupply()": {
        "returns": {
          "_0": "A count of valid NFTs tracked by this contract, where each one of  them has an assigned and queryable owner not equal to the zero address"
        }
      },
      "transferFrom(address,address,uint256)": {
        "details": "Throws unless `msg.sender` is the current owner, an authorized  operator, or the approved address for this NFT. Throws if `_from` is  not the current owner. Throws if `_to` is the zero address. Throws if  `_tokenId` is not a valid NFT.",
        "params": {
          "_from": "The current owner of the NFT",
          "_to": "The new owner",
          "_tokenId": "The NFT to transfer"
        }
      },
      "transferOwnership(address)": {
        "details": "Transfers ownership of the contract to a new account (`newOwner`). Can only be called by the current owner."
      }
    },
    "version": 1
  },
  "userdoc": {
    "kind": "user",
    "methods": {
      "balanceOf(address)": {
        "notice": "Count all NFTs assigned to an owner"
      },
      "name()": {
        "notice": "A descriptive name for a collection of NFTs in this contract"
      },
      "ownerOf(uint256)": {
        "notice": "Find the owner of an NFT"
      },
      "symbol()": {
        "notice": "An abbreviated name for NFTs in this contract"
      },
      "tokenByIndex(uint256)": {
        "notice": "Enumerate valid NFTs"
      },
      "tokenOfOwnerByIndex(address,uint256)": {
        "notice": "Enumerate NFTs assigned to an owner"
      },
      "totalSupply()": {
        "notice": "Count NFTs tracked by this contract"
      },
      "transferFrom(address,address,uint256)": {
        "notice": "Transfer ownership of an NFT -- THE CALLER IS RESPONSIBLE  TO CONFIRM THAT `_to` IS CAPABLE OF RECEIVING NFTS OR ELSE  THEY MAY BE PERMANENTLY LOST"
      }
    },
    "version": 1
  }
}