{
  "contractName": "Diamonds",
  "abi": [
    {
      "inputs": [],
      "stateMutability": "nonpayable",
      "type": "constructor"
    },
    {
      "anonymous": false,
      "inputs": [
        {
          "indexed": true,
          "internalType": "address",
          "name": "previousOwner",
          "type": "address"
        },
        {
          "indexed": true,
          "internalType": "address",
          "name": "newOwner",
          "type": "address"
        }
      ],
      "name": "OwnershipTransferred",
      "type": "event"
    },
    {
      "anonymous": false,
      "inputs": [
        {
          "indexed": true,
          "internalType": "address",
          "name": "_from",
          "type": "address"
        },
        {
          "indexed": true,
          "internalType": "address",
          "name": "_to",
          "type": "address"
        },
        {
          "indexed": true,
          "internalType": "uint256",
          "name": "_tokenId",
          "type": "uint256"
        }
      ],
      "name": "Transfer",
      "type": "event"
    },
    {
      "inputs": [],
      "name": "MINING_LIMIT",
      "outputs": [
        {
          "internalType": "uint256",
          "name": "",
          "type": "uint256"
        }
      ],
      "stateMutability": "view",
      "type": "function",
      "constant": true
    },
    {
      "inputs": [
        {
          "internalType": "address",
          "name": "_owner",
          "type": "address"
        }
      ],
      "name": "balanceOf",
      "outputs": [
        {
          "internalType": "uint256",
          "name": "",
          "type": "uint256"
        }
      ],
      "stateMutability": "view",
      "type": "function",
      "constant": true
    },
    {
      "inputs": [
        {
          "internalType": "uint256",
          "name": "",
          "type": "uint256"
        }
      ],
      "name": "diamonds",
      "outputs": [
        {
          "internalType": "string",
          "name": "chemistry",
          "type": "string"
        },
        {
          "internalType": "uint256",
          "name": "diamondId",
          "type": "uint256"
        }
      ],
      "stateMutability": "view",
      "type": "function",
      "constant": true
    },
    {
      "inputs": [],
      "name": "miningCounter",
      "outputs": [
        {
          "internalType": "uint256",
          "name": "count",
          "type": "uint256"
        }
      ],
      "stateMutability": "view",
      "type": "function",
      "constant": true
    },
    {
      "inputs": [],
      "name": "name",
      "outputs": [
        {
          "internalType": "string",
          "name": "",
          "type": "string"
        }
      ],
      "stateMutability": "view",
      "type": "function",
      "constant": true
    },
    {
      "inputs": [],
      "name": "owner",
      "outputs": [
        {
          "internalType": "address",
          "name": "",
          "type": "address"
        }
      ],
      "stateMutability": "view",
      "type": "function",
      "constant": true
    },
    {
      "inputs": [
        {
          "internalType": "uint256",
          "name": "_tokenId",
          "type": "uint256"
        }
      ],
      "name": "ownerOf",
      "outputs": [
        {
          "internalType": "address",
          "name": "",
          "type": "address"
        }
      ],
      "stateMutability": "view",
      "type": "function",
      "constant": true
    },
    {
      "inputs": [],
      "name": "renounceOwnership",
      "outputs": [],
      "stateMutability": "nonpayable",
      "type": "function"
    },
    {
      "inputs": [
        {
          "internalType": "bytes4",
          "name": "interfaceId",
          "type": "bytes4"
        }
      ],
      "name": "supportsInterface",
      "outputs": [
        {
          "internalType": "bool",
          "name": "",
          "type": "bool"
        }
      ],
      "stateMutability": "view",
      "type": "function",
      "constant": true
    },
    {
      "inputs": [],
      "name": "symbol",
      "outputs": [
        {
          "internalType": "string",
          "name": "",
          "type": "string"
        }
      ],
      "stateMutability": "view",
      "type": "function",
      "constant": true
    },
    {
      "inputs": [
        {
          "internalType": "uint256",
          "name": "_index",
          "type": "uint256"
        }
      ],
      "name": "tokenByIndex",
      "outputs": [
        {
          "internalType": "uint256",
          "name": "",
          "type": "uint256"
        }
      ],
      "stateMutability": "view",
      "type": "function",
      "constant": true
    },
    {
      "inputs": [
        {
          "internalType": "address",
          "name": "_owner",
          "type": "address"
        },
        {
          "internalType": "uint256",
          "name": "_index",
          "type": "uint256"
        }
      ],
      "name": "tokenOfOwnerByIndex",
      "outputs": [
        {
          "internalType": "uint256",
          "name": "",
          "type": "uint256"
        }
      ],
      "stateMutability": "view",
      "type": "function",
      "constant": true
    },
    {
      "inputs": [
        {
          "internalType": "address",
          "name": "_owner",
          "type": "address"
        }
      ],
      "name": "tokensOfOwner",
      "outputs": [
        {
          "internalType": "uint256[]",
          "name": "",
          "type": "uint256[]"
        }
      ],
      "stateMutability": "view",
      "type": "function",
      "constant": true
    },
    {
      "inputs": [],
      "name": "totalSupply",
      "outputs": [
        {
          "internalType": "uint256",
          "name": "",
          "type": "uint256"
        }
      ],
      "stateMutability": "view",
      "type": "function",
      "constant": true
    },
    {
      "inputs": [
        {
          "internalType": "address",
          "name": "_from",
          "type": "address"
        },
        {
          "internalType": "address",
          "name": "_to",
          "type": "address"
        },
        {
          "internalType": "uint256",
          "name": "_tokenId",
          "type": "uint256"
        }
      ],
      "name": "transferFrom",
      "outputs": [],
      "stateMutability": "nonpayable",
      "type": "function"
    },
    {
      "inputs": [
        {
          "internalType": "address",
          "name": "newOwner",
          "type": "address"
        }
      ],
      "name": "transferOwnership",
      "outputs": [],
      "stateMutability": "nonpayable",
      "type": "function"
    },
    {
      "inputs": [
        {
          "internalType": "string",
          "name": "_diamond",
          "type": "string"
        }
      ],
      "name": "mint",
      "outputs": [],
      "stateMutability": "nonpayable",
      "type": "function"
    }
  ],
  "bytecode": "0x60806040523480156200001157600080fd5b506040518060400160405280600d81526020017f4469616d6f6e642048616e6473000000000000000000000000000000000000008152506040518060400160405280600281526020017f44480000000000000000000000000000000000000000000000000000000000008152508181620000b17f01ffc9a7a5cef8baa21ed3c5c0d7e23accb804b619e9333b597f47a0d84076e26200024a60201b60201c565b620001047f13b182f4c0e5b2efbac0efe6cf6d756c8b89f4b79c5707a043ed9ea740574ee97f7feaf19471f34a12a7eaf32d5f3090aa2260ea8624dc8a138e74e0bf0f623076186200024a60201b60201c565b81600190805190602001906200011c929190620003f0565b50806002908051906020019062000135929190620003f0565b505050620001ad7f22c82707ba960a14c7592ffb6b8cfaa073fed0048a84cc7fa41f6b5bd8e7f2e47f3a6eb71757dfc6e784c1459d26270140c2c147d95ca985c80026fc5301c3eca17f8a7e378434598edc36d108689a030cbc9d7d465de4f74c71bae1028eed6a881b18186200024a60201b60201c565b620002227f8230223f691b981717299fae9549350a0d894555723531f02108b1f522c1a7977f6da5e1284143cdd2d15038a59bde3be031250f00291d64494c12d967b3a4e0c37fc53637662700e6c65104059db8bba34439e0c32483ab7c34e3ccae52c739549518186200024a60201b60201c565b62000242620002366200032260201b60201c565b6200032a60201b60201c565b505062000588565b63ffffffff60e01b817bffffffffffffffffffffffffffffffffffffffffffffffffffffffff19161415620002b6576040517f08c379a0000000000000000000000000000000000000000000000000000000008152600401620002ad9062000501565b60405180910390fd5b6001600080837bffffffffffffffffffffffffffffffffffffffffffffffffffffffff19167bffffffffffffffffffffffffffffffffffffffffffffffffffffffff1916815260200190815260200160002060006101000a81548160ff02191690831515021790555050565b600033905090565b6000600960009054906101000a900473ffffffffffffffffffffffffffffffffffffffff16905081600960006101000a81548173ffffffffffffffffffffffffffffffffffffffff021916908373ffffffffffffffffffffffffffffffffffffffff1602179055508173ffffffffffffffffffffffffffffffffffffffff168173ffffffffffffffffffffffffffffffffffffffff167f8be0079c531659141344cd1fd0a4f28419497f9722a3daafe3b4186f6b6457e060405160405180910390a35050565b828054620003fe9062000552565b90600052602060002090601f0160209004810192826200042257600085556200046e565b82601f106200043d57805160ff19168380011785556200046e565b828001600101855582156200046e579182015b828111156200046d57825182559160200191906001019062000450565b5b5090506200047d919062000481565b5090565b5b808211156200049c57600081600090555060010162000482565b5090565b600082825260208201905092915050565b7f496e76616c696420726571756573742e00000000000000000000000000000000600082015250565b6000620004e9601083620004a0565b9150620004f682620004b1565b602082019050919050565b600060208201905081810360008301526200051c81620004da565b9050919050565b7f4e487b7100000000000000000000000000000000000000000000000000000000600052602260045260246000fd5b600060028204905060018216806200056b57607f821691505b6020821081141562000582576200058162000523565b5b50919050565b61257a80620005986000396000f3fe608060405234801561001057600080fd5b506004361061010b5760003560e01c806370a08231116100a257806395d89b411161007157806395d89b41146102e1578063c0179b51146102ff578063d85d3d271461031d578063e308983614610339578063f2fde38b146103575761010b565b806370a0823114610259578063715018a6146102895780638462151c146102935780638da5cb5b146102c35761010b565b80632f745c59116100de5780632f745c59146101985780633951e09b146101c85780634f6ccce7146101f95780636352211e146102295761010b565b806301ffc9a71461011057806306fdde031461014057806318160ddd1461015e57806323b872dd1461017c575b600080fd5b61012a60048036038101906101259190611798565b610373565b60405161013791906117e0565b60405180910390f35b6101486103da565b6040516101559190611894565b60405180910390f35b61016661046c565b60405161017391906118cf565b60405180910390f35b61019660048036038101906101919190611974565b610479565b005b6101b260048036038101906101ad91906119c7565b610489565b6040516101bf91906118cf565b60405180910390f35b6101e260048036038101906101dd9190611a07565b610539565b6040516101f0929190611a34565b60405180910390f35b610213600480360381019061020e9190611a07565b6105f5565b60405161022091906118cf565b60405180910390f35b610243600480360381019061023e9190611a07565b610666565b6040516102509190611a73565b60405180910390f35b610273600480360381019061026e9190611a8e565b610745565b60405161028091906118cf565b60405180910390f35b610291610804565b005b6102ad60048036038101906102a89190611a8e565b61088c565b6040516102ba9190611b79565b60405180910390f35b6102cb610923565b6040516102d89190611a73565b60405180910390f35b6102e961094d565b6040516102f69190611894565b60405180910390f35b6103076109df565b60405161031491906118cf565b60405180910390f35b61033760048036038101906103329190611cd0565b6109eb565b005b610341610be8565b60405161034e91906118cf565b60405180910390f35b610371600480360381019061036c9190611a8e565b610bee565b005b6000806000837bffffffffffffffffffffffffffffffffffffffffffffffffffffffff19167bffffffffffffffffffffffffffffffffffffffffffffffffffffffff1916815260200190815260200160002060009054906101000a900460ff169050919050565b6060600180546103e990611d48565b80601f016020809104026020016040519081016040528092919081815260200182805461041590611d48565b80156104625780601f1061043757610100808354040283529160200191610462565b820191906000526020600020905b81548152906001019060200180831161044557829003601f168201915b5050505050905090565b6000600580549050905090565b610484838383610ce6565b505050565b600061049483610745565b82106104d5576040517f08c379a00000000000000000000000000000000000000000000000000000000081526004016104cc90611dc6565b60405180910390fd5b600760008473ffffffffffffffffffffffffffffffffffffffff1673ffffffffffffffffffffffffffffffffffffffff168152602001908152602001600020828154811061052657610525611de6565b5b9060005260206000200154905092915050565b600a818154811061054957600080fd5b906000526020600020906002020160009150905080600001805461056c90611d48565b80601f016020809104026020016040519081016040528092919081815260200182805461059890611d48565b80156105e55780601f106105ba576101008083540402835291602001916105e5565b820191906000526020600020905b8154815290600101906020018083116105c857829003601f168201915b5050505050908060010154905082565b60006105ff61046c565b8210610640576040517f08c379a000000000000000000000000000000000000000000000000000000000815260040161063790611e61565b60405180910390fd5b6005828154811061065457610653611de6565b5b90600052602060002001549050919050565b60008073ffffffffffffffffffffffffffffffffffffffff166003600084815260200190815260200160002060009054906101000a900473ffffffffffffffffffffffffffffffffffffffff1673ffffffffffffffffffffffffffffffffffffffff16141561070a576040517f08c379a000000000000000000000000000000000000000000000000000000000815260040161070190611ef3565b60405180910390fd5b6003600083815260200190815260200160002060009054906101000a900473ffffffffffffffffffffffffffffffffffffffff169050919050565b60008073ffffffffffffffffffffffffffffffffffffffff168273ffffffffffffffffffffffffffffffffffffffff1614156107b6576040517f08c379a00000000000000000000000000000000000000000000000000000000081526004016107ad90611f5f565b60405180910390fd5b6107fd600460008473ffffffffffffffffffffffffffffffffffffffff1673ffffffffffffffffffffffffffffffffffffffff168152602001908152602001600020610d01565b9050919050565b61080c610d0f565b73ffffffffffffffffffffffffffffffffffffffff1661082a610923565b73ffffffffffffffffffffffffffffffffffffffff1614610880576040517f08c379a000000000000000000000000000000000000000000000000000000000815260040161087790611fcb565b60405180910390fd5b61088a6000610d17565b565b6060600760008373ffffffffffffffffffffffffffffffffffffffff1673ffffffffffffffffffffffffffffffffffffffff16815260200190815260200160002080548060200260200160405190810160405280929190818152602001828054801561091757602002820191906000526020600020905b815481526020019060010190808311610903575b50505050509050919050565b6000600960009054906101000a900473ffffffffffffffffffffffffffffffffffffffff16905090565b60606002805461095c90611d48565b80601f016020809104026020016040519081016040528092919081815260200182805461098890611d48565b80156109d55780601f106109aa576101008083540402835291602001916109d5565b820191906000526020600020905b8154815290600101906020018083116109b857829003601f168201915b5050505050905090565b600b8060000154905081565b6109f3610d0f565b73ffffffffffffffffffffffffffffffffffffffff16610a11610923565b73ffffffffffffffffffffffffffffffffffffffff1614610a67576040517f08c379a0000000000000000000000000000000000000000000000000000000008152600401610a5e90611fcb565b60405180910390fd5b611e61610a74600b610d01565b10610ab4576040517f08c379a0000000000000000000000000000000000000000000000000000000008152600401610aab90612037565b60405180910390fd5b600c81604051610ac49190612093565b908152602001604051809103902060009054906101000a900460ff1615610b20576040517f08c379a0000000000000000000000000000000000000000000000000000000008152600401610b179061211c565b60405180910390fd5b610b2a600b610ddd565b6000600a80549050905060006040518060400160405280848152602001838152509050600a8190806001815401808255809150506001900390600052602060002090600202016000909190919091506000820151816000019080519060200190610b95929190611689565b50602082015181600101555050610bac3383610e03565b6001600c84604051610bbe9190612093565b908152602001604051809103902060006101000a81548160ff021916908315150217905550505050565b611e6181565b610bf6610d0f565b73ffffffffffffffffffffffffffffffffffffffff16610c14610923565b73ffffffffffffffffffffffffffffffffffffffff1614610c6a576040517f08c379a0000000000000000000000000000000000000000000000000000000008152600401610c6190611fcb565b60405180910390fd5b600073ffffffffffffffffffffffffffffffffffffffff168173ffffffffffffffffffffffffffffffffffffffff161415610cda576040517f08c379a0000000000000000000000000000000000000000000000000000000008152600401610cd1906121ae565b60405180910390fd5b610ce381610d17565b50565b610cf1838383610e24565b610cfc83838361104a565b505050565b600081600001549050919050565b600033905090565b6000600960009054906101000a900473ffffffffffffffffffffffffffffffffffffffff16905081600960006101000a81548173ffffffffffffffffffffffffffffffffffffffff021916908373ffffffffffffffffffffffffffffffffffffffff1602179055508173ffffffffffffffffffffffffffffffffffffffff168173ffffffffffffffffffffffffffffffffffffffff167f8be0079c531659141344cd1fd0a4f28419497f9722a3daafe3b4186f6b6457e060405160405180910390a35050565b6001816000016000828254610df291906121fd565b925050819055816000018190555050565b610e0d82826112dc565b610e168161148e565b610e2082826114d7565b5050565b600073ffffffffffffffffffffffffffffffffffffffff168273ffffffffffffffffffffffffffffffffffffffff161415610e94576040517f08c379a0000000000000000000000000000000000000000000000000000000008152600401610e8b906122c5565b60405180910390fd5b8273ffffffffffffffffffffffffffffffffffffffff16610eb482610666565b73ffffffffffffffffffffffffffffffffffffffff1614610f0a576040517f08c379a0000000000000000000000000000000000000000000000000000000008152600401610f0190612357565b60405180910390fd5b610f51600460008573ffffffffffffffffffffffffffffffffffffffff1673ffffffffffffffffffffffffffffffffffffffff16815260200190815260200160002061159b565b610f98600460008473ffffffffffffffffffffffffffffffffffffffff1673ffffffffffffffffffffffffffffffffffffffff168152602001908152602001600020610ddd565b816003600083815260200190815260200160002060006101000a81548173ffffffffffffffffffffffffffffffffffffffff021916908373ffffffffffffffffffffffffffffffffffffffff160217905550808273ffffffffffffffffffffffffffffffffffffffff168473ffffffffffffffffffffffffffffffffffffffff167fddf252ad1be2c89b69c2b068fc378daa952ba7f163c4a11628f55a4df523b3ef60405160405180910390a4505050565b6001600760008573ffffffffffffffffffffffffffffffffffffffff1673ffffffffffffffffffffffffffffffffffffffff1681526020019081526020016000208054905011156111b257600760008473ffffffffffffffffffffffffffffffffffffffff1673ffffffffffffffffffffffffffffffffffffffff1681526020019081526020016000206001600760008673ffffffffffffffffffffffffffffffffffffffff1673ffffffffffffffffffffffffffffffffffffffff168152602001908152602001600020805490506111239190612377565b8154811061113457611133611de6565b5b9060005260206000200154600760008573ffffffffffffffffffffffffffffffffffffffff1673ffffffffffffffffffffffffffffffffffffffff1681526020019081526020016000206008600084815260200190815260200160002054815481106111a3576111a2611de6565b5b90600052602060002001819055505b600760008473ffffffffffffffffffffffffffffffffffffffff1673ffffffffffffffffffffffffffffffffffffffff168152602001908152602001600020805480611201576112006123ab565b5b60019003818190600052602060002001600090559055600760008373ffffffffffffffffffffffffffffffffffffffff1673ffffffffffffffffffffffffffffffffffffffff168152602001908152602001600020805490506008600083815260200190815260200160002081905550600760008373ffffffffffffffffffffffffffffffffffffffff1673ffffffffffffffffffffffffffffffffffffffff168152602001908152602001600020819080600181540180825580915050600190039060005260206000200160009091909190915055505050565b600073ffffffffffffffffffffffffffffffffffffffff168273ffffffffffffffffffffffffffffffffffffffff16141561134c576040517f08c379a000000000000000000000000000000000000000000000000000000000815260040161134390612426565b60405180910390fd5b611355816115be565b15611395576040517f08c379a000000000000000000000000000000000000000000000000000000000815260040161138c90612492565b60405180910390fd5b816003600083815260200190815260200160002060006101000a81548173ffffffffffffffffffffffffffffffffffffffff021916908373ffffffffffffffffffffffffffffffffffffffff16021790555061142e600460008473ffffffffffffffffffffffffffffffffffffffff1673ffffffffffffffffffffffffffffffffffffffff168152602001908152602001600020610ddd565b808273ffffffffffffffffffffffffffffffffffffffff16600073ffffffffffffffffffffffffffffffffffffffff167fddf252ad1be2c89b69c2b068fc378daa952ba7f163c4a11628f55a4df523b3ef60405160405180910390a45050565b6005805490506006600083815260200190815260200160002081905550600581908060018154018082558091505060019003906000526020600020016000909190919091505550565b600760008373ffffffffffffffffffffffffffffffffffffffff1673ffffffffffffffffffffffffffffffffffffffff168152602001908152602001600020805490506008600083815260200190815260200160002081905550600760008373ffffffffffffffffffffffffffffffffffffffff1673ffffffffffffffffffffffffffffffffffffffff1681526020019081526020016000208190806001815401808255809150506001900390600052602060002001600090919091909150555050565b6115b36001826000015461163090919063ffffffff16565b816000018190555050565b6000806003600084815260200190815260200160002060009054906101000a900473ffffffffffffffffffffffffffffffffffffffff169050600073ffffffffffffffffffffffffffffffffffffffff168173ffffffffffffffffffffffffffffffffffffffff161415915050919050565b600082821115611675576040517f08c379a000000000000000000000000000000000000000000000000000000000815260040161166c90612524565b60405180910390fd5b81836116819190612377565b905092915050565b82805461169590611d48565b90600052602060002090601f0160209004810192826116b757600085556116fe565b82601f106116d057805160ff19168380011785556116fe565b828001600101855582156116fe579182015b828111156116fd5782518255916020019190600101906116e2565b5b50905061170b919061170f565b5090565b5b80821115611728576000816000905550600101611710565b5090565b6000604051905090565b600080fd5b600080fd5b60007fffffffff0000000000000000000000000000000000000000000000000000000082169050919050565b61177581611740565b811461178057600080fd5b50565b6000813590506117928161176c565b92915050565b6000602082840312156117ae576117ad611736565b5b60006117bc84828501611783565b91505092915050565b60008115159050919050565b6117da816117c5565b82525050565b60006020820190506117f560008301846117d1565b92915050565b600081519050919050565b600082825260208201905092915050565b60005b8381101561183557808201518184015260208101905061181a565b83811115611844576000848401525b50505050565b6000601f19601f8301169050919050565b6000611866826117fb565b6118708185611806565b9350611880818560208601611817565b6118898161184a565b840191505092915050565b600060208201905081810360008301526118ae818461185b565b905092915050565b6000819050919050565b6118c9816118b6565b82525050565b60006020820190506118e460008301846118c0565b92915050565b600073ffffffffffffffffffffffffffffffffffffffff82169050919050565b6000611915826118ea565b9050919050565b6119258161190a565b811461193057600080fd5b50565b6000813590506119428161191c565b92915050565b611951816118b6565b811461195c57600080fd5b50565b60008135905061196e81611948565b92915050565b60008060006060848603121561198d5761198c611736565b5b600061199b86828701611933565b93505060206119ac86828701611933565b92505060406119bd8682870161195f565b9150509250925092565b600080604083850312156119de576119dd611736565b5b60006119ec85828601611933565b92505060206119fd8582860161195f565b9150509250929050565b600060208284031215611a1d57611a1c611736565b5b6000611a2b8482850161195f565b91505092915050565b60006040820190508181036000830152611a4e818561185b565b9050611a5d60208301846118c0565b9392505050565b611a6d8161190a565b82525050565b6000602082019050611a886000830184611a64565b92915050565b600060208284031215611aa457611aa3611736565b5b6000611ab284828501611933565b91505092915050565b600081519050919050565b600082825260208201905092915050565b6000819050602082019050919050565b611af0816118b6565b82525050565b6000611b028383611ae7565b60208301905092915050565b6000602082019050919050565b6000611b2682611abb565b611b308185611ac6565b9350611b3b83611ad7565b8060005b83811015611b6c578151611b538882611af6565b9750611b5e83611b0e565b925050600181019050611b3f565b5085935050505092915050565b60006020820190508181036000830152611b938184611b1b565b905092915050565b600080fd5b600080fd5b7f4e487b7100000000000000000000000000000000000000000000000000000000600052604160045260246000fd5b611bdd8261184a565b810181811067ffffffffffffffff82111715611bfc57611bfb611ba5565b5b80604052505050565b6000611c0f61172c565b9050611c1b8282611bd4565b919050565b600067ffffffffffffffff821115611c3b57611c3a611ba5565b5b611c448261184a565b9050602081019050919050565b82818337600083830152505050565b6000611c73611c6e84611c20565b611c05565b905082815260208101848484011115611c8f57611c8e611ba0565b5b611c9a848285611c51565b509392505050565b600082601f830112611cb757611cb6611b9b565b5b8135611cc7848260208601611c60565b91505092915050565b600060208284031215611ce657611ce5611736565b5b600082013567ffffffffffffffff811115611d0457611d0361173b565b5b611d1084828501611ca2565b91505092915050565b7f4e487b7100000000000000000000000000000000000000000000000000000000600052602260045260246000fd5b60006002820490506001821680611d6057607f821691505b60208210811415611d7457611d73611d19565b5b50919050565b7f4f776e657220696e646578206973206f7574206f6620626f756e64732e000000600082015250565b6000611db0601d83611806565b9150611dbb82611d7a565b602082019050919050565b60006020820190508181036000830152611ddf81611da3565b9050919050565b7f4e487b7100000000000000000000000000000000000000000000000000000000600052603260045260246000fd5b7f496e646578206973206f7574206f6620626f756e64732e000000000000000000600082015250565b6000611e4b601783611806565b9150611e5682611e15565b602082019050919050565b60006020820190508181036000830152611e7a81611e3e565b9050919050565b7f4e46542063616e2774206265206f776e6564206279207a65726f20616464726560008201527f73732e0000000000000000000000000000000000000000000000000000000000602082015250565b6000611edd602383611806565b9150611ee882611e81565b604082019050919050565b60006020820190508181036000830152611f0c81611ed0565b9050919050565b7f43616e277420626520746865207a65726f20616464726573732e000000000000600082015250565b6000611f49601a83611806565b9150611f5482611f13565b602082019050919050565b60006020820190508181036000830152611f7881611f3c565b9050919050565b7f4f776e61626c653a2063616c6c6572206973206e6f7420746865206f776e6572600082015250565b6000611fb5602083611806565b9150611fc082611f7f565b602082019050919050565b60006020820190508181036000830152611fe481611fa8565b9050919050565b7f546f74616c2063617020726561636865642e0000000000000000000000000000600082015250565b6000612021601283611806565b915061202c82611feb565b602082019050919050565b6000602082019050818103600083015261205081612014565b9050919050565b600081905092915050565b600061206d826117fb565b6120778185612057565b9350612087818560208601611817565b80840191505092915050565b600061209f8284612062565b915081905092915050565b7f536f7272792c207468617420746f6b656e20616c72656164792065786973747360008201527f2e00000000000000000000000000000000000000000000000000000000000000602082015250565b6000612106602183611806565b9150612111826120aa565b604082019050919050565b60006020820190508181036000830152612135816120f9565b9050919050565b7f4f776e61626c653a206e6577206f776e657220697320746865207a65726f206160008201527f6464726573730000000000000000000000000000000000000000000000000000602082015250565b6000612198602683611806565b91506121a38261213c565b604082019050919050565b600060208201905081810360008301526121c78161218b565b9050919050565b7f4e487b7100000000000000000000000000000000000000000000000000000000600052601160045260246000fd5b6000612208826118b6565b9150612213836118b6565b9250827fffffffffffffffffffffffffffffffffffffffffffffffffffffffffffffffff03821115612248576122476121ce565b5b828201905092915050565b7f4e46542063616e2774207472616e7366657220746f207a65726f20616464726560008201527f73732e0000000000000000000000000000000000000000000000000000000000602082015250565b60006122af602383611806565b91506122ba82612253565b604082019050919050565b600060208201905081810360008301526122de816122a2565b9050919050565b7f5f66726f6d2061646472657373206973206e6f7420746865206f776e6572206f60008201527f662074686520746f6b656e2e0000000000000000000000000000000000000000602082015250565b6000612341602c83611806565b915061234c826122e5565b604082019050919050565b6000602082019050818103600083015261237081612334565b9050919050565b6000612382826118b6565b915061238d836118b6565b9250828210156123a05761239f6121ce565b5b828203905092915050565b7f4e487b7100000000000000000000000000000000000000000000000000000000600052603160045260246000fd5b7f4e46542063616e2774206d696e7420746f207a65726f20616464726573732e00600082015250565b6000612410601f83611806565b915061241b826123da565b602082019050919050565b6000602082019050818103600083015261243f81612403565b9050919050565b7f546f6b656e20697320616c7265616479206d696e746564210000000000000000600082015250565b600061247c601883611806565b915061248782612446565b602082019050919050565b600060208201905081810360008301526124ab8161246f565b9050919050565b7f5375627472616374696f6e206f766572666c6f77206572726f7220766961205360008201527f6166654d61746800000000000000000000000000000000000000000000000000602082015250565b600061250e602783611806565b9150612519826124b2565b604082019050919050565b6000602082019050818103600083015261253d81612501565b905091905056fea2646970667358221220b4cd6bb8aabf30f0c62a8dc2ad96648702232936b78f530256d74c7aa61f28c964736f6c634300080a0033",
  "immutableReferences": {},
  "source": "/// SPDX-License-Identifier: MIT\npragma solidity 0.8.10;\n\n/// @title Main NFT contract\n/// @notice Generative NFT marketplace to mint and send\n/// @author CryptoByNight\n/// @dev This is the main contract, with inheritance from Connector and other nested contracts like ERC721, Enumerable and Metadata\n\nimport './ERC721Connector.sol';\n\ncontract Diamonds is ERC721Connector {\n\n    using SafeMath for uint256;\n    using Counters for Counters.Counter;\n    struct Diamond {\n        string chemistry;\n        uint256 diamondId;\n    }\n\n    /// @notice Array of diamonds (NFTs) \n    Diamond[] public diamonds;\n    /// @notice Maximum supply constant\n    uint256 public constant MINING_LIMIT = 7777;\n    /// @notice Counter to track against maximum supply limit\n    Counters.Counter public miningCounter;\n\n    mapping(string => bool) diamondExists;\n\n    /// @notice Main minting function with ownable modifier from OpenZeppelin\n    /// @param _diamond String for randomly generated diamond to be minted - generated on front end and passeed through\n    function mint(string memory _diamond) public onlyOwner {\n        require(miningCounter.current() < MINING_LIMIT, \"Total cap reached.\");\n        require(!diamondExists[_diamond], \"Sorry, that token already exists.\");\n\n        miningCounter.increase();\n\n        uint256 _tokenId = diamonds.length;\n\n        Diamond memory diamond = Diamond({\n            chemistry: _diamond,\n            diamondId: _tokenId\n        });\n\n        diamonds.push(diamond);\n\n        _mint(msg.sender, _tokenId);\n        diamondExists[_diamond] = true;\n\n    }\n\n    /// @notice Constructor for token name and symbol\n    constructor() ERC721Connector('Diamond Hands', 'DH') {}\n\n}",
  "sourcePath": "/Users/majikk/Desktop/ConsenSys/blockchain-developer-bootcamp-final-project/src/contracts/Diamonds.sol",
  "compiler": {
    "name": "solc",
    "version": "0.8.10+commit.fc410830.Emscripten.clang"
  },
  "schemaVersion": "3.4.3",
  "updatedAt": "2021-11-21T14:21:53.377Z",
  "networkType": "ethereum",
  "devdoc": {
    "kind": "dev",
    "methods": {
      "balanceOf(address)": {
        "params": {
          "_owner": "Owner's address"
        },
        "returns": {
          "_0": "The current token count for the owner"
        }
      },
      "mint(string)": {
        "params": {
          "_diamond": "String for randomly generated diamond to be minted - generated on front end and passeed through"
        }
      },
      "name()": {
        "returns": {
          "_0": "Name of token passed in from constructor and main contract"
        }
      },
      "owner()": {
        "details": "Returns the address of the current owner."
      },
      "ownerOf(uint256)": {
        "params": {
          "_tokenId": "Token ID to identify diamond"
        },
        "returns": {
          "_0": "Address of owner of the diamond"
        }
      },
      "renounceOwnership()": {
        "details": "Leaves the contract without owner. It will not be possible to call `onlyOwner` functions anymore. Can only be called by the current owner. NOTE: Renouncing ownership will leave the contract without an owner, thereby removing any functionality that is only available to the owner."
      },
      "supportsInterface(bytes4)": {
        "params": {
          "interfaceId": "Registered interface ID"
        },
        "returns": {
          "_0": "True or false if interface is registered and supported"
        }
      },
      "symbol()": {
        "returns": {
          "_0": "Symbol of token passed in from constructor and main contract"
        }
      },
      "tokenByIndex(uint256)": {
        "details": "Retrieve token based on position in array",
        "params": {
          "_index": "Array index of token"
        },
        "returns": {
          "_0": "Token number"
        }
      },
      "tokenOfOwnerByIndex(address,uint256)": {
        "params": {
          "_index": "Array index of owned token from owner's token index",
          "_owner": "Address of owner"
        },
        "returns": {
          "_0": "Token ID for owned token"
        }
      },
      "tokensOfOwner(address)": {
        "params": {
          "_owner": "Address of owner"
        },
        "returns": {
          "_0": "Array of owned tokens"
        }
      },
      "totalSupply()": {
        "returns": {
          "_0": "Total supply of tokens"
        }
      },
      "transferFrom(address,address,uint256)": {
        "params": {
          "_from": "From address",
          "_to": "To address to send the token",
          "_tokenId": "Token number to send"
        }
      },
      "transferOwnership(address)": {
        "details": "Transfers ownership of the contract to a new account (`newOwner`). Can only be called by the current owner."
      }
    },
    "version": 1
  },
  "userdoc": {
    "kind": "user",
    "methods": {
      "MINING_LIMIT()": {
        "notice": "Maximum supply constant"
      },
      "balanceOf(address)": {
        "notice": "Get total tokens owned by user"
      },
      "constructor": {
        "notice": "Constructor for token name and symbol"
      },
      "diamonds(uint256)": {
        "notice": "Array of diamonds (NFTs) "
      },
      "miningCounter()": {
        "notice": "Counter to track against maximum supply limit"
      },
      "mint(string)": {
        "notice": "Main minting function with ownable modifier from OpenZeppelin"
      },
      "ownerOf(uint256)": {
        "notice": "Get owner of a specific token"
      },
      "supportsInterface(bytes4)": {
        "notice": "Query if a contract implements an interface"
      },
      "tokenOfOwnerByIndex(address,uint256)": {
        "notice": "Find token of an owner by index in their list of owned tokens"
      },
      "tokensOfOwner(address)": {
        "notice": "List all tokens of owner from address"
      },
      "totalSupply()": {
        "notice": "Total supply of tokens "
      },
      "transferFrom(address,address,uint256)": {
        "notice": "Transfer token from one user to another"
      }
    },
    "version": 1
  }
}