{
  "contractName": "ERC721Connector",
  "abi": [
    {
      "inputs": [
        {
          "internalType": "string",
          "name": "name",
          "type": "string"
        },
        {
          "internalType": "string",
          "name": "symbol",
          "type": "string"
        }
      ],
      "stateMutability": "nonpayable",
      "type": "constructor"
    },
    {
      "anonymous": false,
      "inputs": [
        {
          "indexed": true,
          "internalType": "address",
          "name": "_owner",
          "type": "address"
        },
        {
          "indexed": true,
          "internalType": "address",
          "name": "_approved",
          "type": "address"
        },
        {
          "indexed": true,
          "internalType": "uint256",
          "name": "_tokenId",
          "type": "uint256"
        }
      ],
      "name": "Approval",
      "type": "event"
    },
    {
      "anonymous": false,
      "inputs": [
        {
          "indexed": true,
          "internalType": "address",
          "name": "previousOwner",
          "type": "address"
        },
        {
          "indexed": true,
          "internalType": "address",
          "name": "newOwner",
          "type": "address"
        }
      ],
      "name": "OwnershipTransferred",
      "type": "event"
    },
    {
      "anonymous": false,
      "inputs": [
        {
          "indexed": true,
          "internalType": "address",
          "name": "_from",
          "type": "address"
        },
        {
          "indexed": true,
          "internalType": "address",
          "name": "_to",
          "type": "address"
        },
        {
          "indexed": true,
          "internalType": "uint256",
          "name": "_tokenId",
          "type": "uint256"
        }
      ],
      "name": "Transfer",
      "type": "event"
    },
    {
      "inputs": [
        {
          "internalType": "address",
          "name": "_owner",
          "type": "address"
        }
      ],
      "name": "balanceOf",
      "outputs": [
        {
          "internalType": "uint256",
          "name": "",
          "type": "uint256"
        }
      ],
      "stateMutability": "view",
      "type": "function"
    },
    {
      "inputs": [],
      "name": "name",
      "outputs": [
        {
          "internalType": "string",
          "name": "",
          "type": "string"
        }
      ],
      "stateMutability": "view",
      "type": "function"
    },
    {
      "inputs": [],
      "name": "owner",
      "outputs": [
        {
          "internalType": "address",
          "name": "",
          "type": "address"
        }
      ],
      "stateMutability": "view",
      "type": "function"
    },
    {
      "inputs": [
        {
          "internalType": "uint256",
          "name": "_tokenId",
          "type": "uint256"
        }
      ],
      "name": "ownerOf",
      "outputs": [
        {
          "internalType": "address",
          "name": "",
          "type": "address"
        }
      ],
      "stateMutability": "view",
      "type": "function"
    },
    {
      "inputs": [],
      "name": "renounceOwnership",
      "outputs": [],
      "stateMutability": "nonpayable",
      "type": "function"
    },
    {
      "inputs": [
        {
          "internalType": "bytes4",
          "name": "interfaceId",
          "type": "bytes4"
        }
      ],
      "name": "supportsInterface",
      "outputs": [
        {
          "internalType": "bool",
          "name": "",
          "type": "bool"
        }
      ],
      "stateMutability": "view",
      "type": "function"
    },
    {
      "inputs": [],
      "name": "symbol",
      "outputs": [
        {
          "internalType": "string",
          "name": "",
          "type": "string"
        }
      ],
      "stateMutability": "view",
      "type": "function"
    },
    {
      "inputs": [
        {
          "internalType": "uint256",
          "name": "_index",
          "type": "uint256"
        }
      ],
      "name": "tokenByIndex",
      "outputs": [
        {
          "internalType": "uint256",
          "name": "",
          "type": "uint256"
        }
      ],
      "stateMutability": "view",
      "type": "function"
    },
    {
      "inputs": [
        {
          "internalType": "address",
          "name": "_owner",
          "type": "address"
        },
        {
          "internalType": "uint256",
          "name": "_index",
          "type": "uint256"
        }
      ],
      "name": "tokenOfOwnerByIndex",
      "outputs": [
        {
          "internalType": "uint256",
          "name": "",
          "type": "uint256"
        }
      ],
      "stateMutability": "view",
      "type": "function"
    },
    {
      "inputs": [
        {
          "internalType": "address",
          "name": "_owner",
          "type": "address"
        }
      ],
      "name": "tokensOfOwner",
      "outputs": [
        {
          "internalType": "uint256[]",
          "name": "",
          "type": "uint256[]"
        }
      ],
      "stateMutability": "view",
      "type": "function"
    },
    {
      "inputs": [],
      "name": "totalSupply",
      "outputs": [
        {
          "internalType": "uint256",
          "name": "",
          "type": "uint256"
        }
      ],
      "stateMutability": "view",
      "type": "function"
    },
    {
      "inputs": [
        {
          "internalType": "address",
          "name": "_from",
          "type": "address"
        },
        {
          "internalType": "address",
          "name": "_to",
          "type": "address"
        },
        {
          "internalType": "uint256",
          "name": "_tokenId",
          "type": "uint256"
        }
      ],
      "name": "transferFrom",
      "outputs": [],
      "stateMutability": "nonpayable",
      "type": "function"
    },
    {
      "inputs": [
        {
          "internalType": "address",
          "name": "newOwner",
          "type": "address"
        }
      ],
      "name": "transferOwnership",
      "outputs": [],
      "stateMutability": "nonpayable",
      "type": "function"
    }
  ],
  "bytecode": "0x60806040523480156200001157600080fd5b5060405162002182380380620021828339818101604052810190620000379190620005f6565b81816200006a7f01ffc9a7a5cef8baa21ed3c5c0d7e23accb804b619e9333b597f47a0d84076e26200020360201b60201c565b620000bd7f13b182f4c0e5b2efbac0efe6cf6d756c8b89f4b79c5707a043ed9ea740574ee97f7feaf19471f34a12a7eaf32d5f3090aa2260ea8624dc8a138e74e0bf0f623076186200020360201b60201c565b8160019080519060200190620000d5929190620003a9565b508060029080519060200190620000ee929190620003a9565b505050620001667f22c82707ba960a14c7592ffb6b8cfaa073fed0048a84cc7fa41f6b5bd8e7f2e47f3a6eb71757dfc6e784c1459d26270140c2c147d95ca985c80026fc5301c3eca17f8a7e378434598edc36d108689a030cbc9d7d465de4f74c71bae1028eed6a881b18186200020360201b60201c565b620001db7f8230223f691b981717299fae9549350a0d894555723531f02108b1f522c1a7977f6da5e1284143cdd2d15038a59bde3be031250f00291d64494c12d967b3a4e0c37fc53637662700e6c65104059db8bba34439e0c32483ab7c34e3ccae52c739549518186200020360201b60201c565b620001fb620001ef620002db60201b60201c565b620002e360201b60201c565b505062000763565b63ffffffff60e01b817bffffffffffffffffffffffffffffffffffffffffffffffffffffffff191614156200026f576040517f08c379a00000000000000000000000000000000000000000000000000000000081526004016200026690620006dc565b60405180910390fd5b6001600080837bffffffffffffffffffffffffffffffffffffffffffffffffffffffff19167bffffffffffffffffffffffffffffffffffffffffffffffffffffffff1916815260200190815260200160002060006101000a81548160ff02191690831515021790555050565b600033905090565b6000600960009054906101000a900473ffffffffffffffffffffffffffffffffffffffff16905081600960006101000a81548173ffffffffffffffffffffffffffffffffffffffff021916908373ffffffffffffffffffffffffffffffffffffffff1602179055508173ffffffffffffffffffffffffffffffffffffffff168173ffffffffffffffffffffffffffffffffffffffff167f8be0079c531659141344cd1fd0a4f28419497f9722a3daafe3b4186f6b6457e060405160405180910390a35050565b828054620003b7906200072d565b90600052602060002090601f016020900481019282620003db576000855562000427565b82601f10620003f657805160ff191683800117855562000427565b8280016001018555821562000427579182015b828111156200042657825182559160200191906001019062000409565b5b5090506200043691906200043a565b5090565b5b80821115620004555760008160009055506001016200043b565b5090565b6000604051905090565b600080fd5b600080fd5b600080fd5b600080fd5b6000601f19601f8301169050919050565b7f4e487b7100000000000000000000000000000000000000000000000000000000600052604160045260246000fd5b620004c28262000477565b810181811067ffffffffffffffff82111715620004e457620004e362000488565b5b80604052505050565b6000620004f962000459565b9050620005078282620004b7565b919050565b600067ffffffffffffffff8211156200052a576200052962000488565b5b620005358262000477565b9050602081019050919050565b60005b838110156200056257808201518184015260208101905062000545565b8381111562000572576000848401525b50505050565b60006200058f62000589846200050c565b620004ed565b905082815260208101848484011115620005ae57620005ad62000472565b5b620005bb84828562000542565b509392505050565b600082601f830112620005db57620005da6200046d565b5b8151620005ed84826020860162000578565b91505092915050565b6000806040838503121562000610576200060f62000463565b5b600083015167ffffffffffffffff81111562000631576200063062000468565b5b6200063f85828601620005c3565b925050602083015167ffffffffffffffff81111562000663576200066262000468565b5b6200067185828601620005c3565b9150509250929050565b600082825260208201905092915050565b7f496e76616c696420726571756573742e00000000000000000000000000000000600082015250565b6000620006c46010836200067b565b9150620006d1826200068c565b602082019050919050565b60006020820190508181036000830152620006f781620006b5565b9050919050565b7f4e487b7100000000000000000000000000000000000000000000000000000000600052602260045260246000fd5b600060028204905060018216806200074657607f821691505b602082108114156200075d576200075c620006fe565b5b50919050565b611a0f80620007736000396000f3fe608060405234801561001057600080fd5b50600436106100cf5760003560e01c80636352211e1161008c5780638462151c116100665780638462151c146102265780638da5cb5b1461025657806395d89b4114610274578063f2fde38b14610292576100cf565b80636352211e146101bc57806370a08231146101ec578063715018a61461021c576100cf565b806301ffc9a7146100d457806306fdde031461010457806318160ddd1461012257806323b872dd146101405780632f745c591461015c5780634f6ccce71461018c575b600080fd5b6100ee60048036038101906100e99190611004565b6102ae565b6040516100fb919061104c565b60405180910390f35b61010c610315565b6040516101199190611100565b60405180910390f35b61012a6103a7565b604051610137919061113b565b60405180910390f35b61015a600480360381019061015591906111e0565b6103b4565b005b61017660048036038101906101719190611233565b6103c4565b604051610183919061113b565b60405180910390f35b6101a660048036038101906101a19190611273565b610474565b6040516101b3919061113b565b60405180910390f35b6101d660048036038101906101d19190611273565b6104e5565b6040516101e391906112af565b60405180910390f35b610206600480360381019061020191906112ca565b6105c4565b604051610213919061113b565b60405180910390f35b610224610683565b005b610240600480360381019061023b91906112ca565b61070b565b60405161024d91906113b5565b60405180910390f35b61025e6107a2565b60405161026b91906112af565b60405180910390f35b61027c6107cc565b6040516102899190611100565b60405180910390f35b6102ac60048036038101906102a791906112ca565b61085e565b005b6000806000837bffffffffffffffffffffffffffffffffffffffffffffffffffffffff19167bffffffffffffffffffffffffffffffffffffffffffffffffffffffff1916815260200190815260200160002060009054906101000a900460ff169050919050565b60606001805461032490611406565b80601f016020809104026020016040519081016040528092919081815260200182805461035090611406565b801561039d5780601f106103725761010080835404028352916020019161039d565b820191906000526020600020905b81548152906001019060200180831161038057829003601f168201915b5050505050905090565b6000600580549050905090565b6103bf838383610956565b505050565b60006103cf836105c4565b8210610410576040517f08c379a000000000000000000000000000000000000000000000000000000000815260040161040790611484565b60405180910390fd5b600760008473ffffffffffffffffffffffffffffffffffffffff1673ffffffffffffffffffffffffffffffffffffffff1681526020019081526020016000208281548110610461576104606114a4565b5b9060005260206000200154905092915050565b600061047e6103a7565b82106104bf576040517f08c379a00000000000000000000000000000000000000000000000000000000081526004016104b69061151f565b60405180910390fd5b600582815481106104d3576104d26114a4565b5b90600052602060002001549050919050565b60008073ffffffffffffffffffffffffffffffffffffffff166003600084815260200190815260200160002060009054906101000a900473ffffffffffffffffffffffffffffffffffffffff1673ffffffffffffffffffffffffffffffffffffffff161415610589576040517f08c379a0000000000000000000000000000000000000000000000000000000008152600401610580906115b1565b60405180910390fd5b6003600083815260200190815260200160002060009054906101000a900473ffffffffffffffffffffffffffffffffffffffff169050919050565b60008073ffffffffffffffffffffffffffffffffffffffff168273ffffffffffffffffffffffffffffffffffffffff161415610635576040517f08c379a000000000000000000000000000000000000000000000000000000000815260040161062c9061161d565b60405180910390fd5b61067c600460008473ffffffffffffffffffffffffffffffffffffffff1673ffffffffffffffffffffffffffffffffffffffff168152602001908152602001600020610971565b9050919050565b61068b61097f565b73ffffffffffffffffffffffffffffffffffffffff166106a96107a2565b73ffffffffffffffffffffffffffffffffffffffff16146106ff576040517f08c379a00000000000000000000000000000000000000000000000000000000081526004016106f690611689565b60405180910390fd5b6107096000610987565b565b6060600760008373ffffffffffffffffffffffffffffffffffffffff1673ffffffffffffffffffffffffffffffffffffffff16815260200190815260200160002080548060200260200160405190810160405280929190818152602001828054801561079657602002820191906000526020600020905b815481526020019060010190808311610782575b50505050509050919050565b6000600960009054906101000a900473ffffffffffffffffffffffffffffffffffffffff16905090565b6060600280546107db90611406565b80601f016020809104026020016040519081016040528092919081815260200182805461080790611406565b80156108545780601f1061082957610100808354040283529160200191610854565b820191906000526020600020905b81548152906001019060200180831161083757829003601f168201915b5050505050905090565b61086661097f565b73ffffffffffffffffffffffffffffffffffffffff166108846107a2565b73ffffffffffffffffffffffffffffffffffffffff16146108da576040517f08c379a00000000000000000000000000000000000000000000000000000000081526004016108d190611689565b60405180910390fd5b600073ffffffffffffffffffffffffffffffffffffffff168173ffffffffffffffffffffffffffffffffffffffff16141561094a576040517f08c379a00000000000000000000000000000000000000000000000000000000081526004016109419061171b565b60405180910390fd5b61095381610987565b50565b610961838383610a4d565b61096c838383610c73565b505050565b600081600001549050919050565b600033905090565b6000600960009054906101000a900473ffffffffffffffffffffffffffffffffffffffff16905081600960006101000a81548173ffffffffffffffffffffffffffffffffffffffff021916908373ffffffffffffffffffffffffffffffffffffffff1602179055508173ffffffffffffffffffffffffffffffffffffffff168173ffffffffffffffffffffffffffffffffffffffff167f8be0079c531659141344cd1fd0a4f28419497f9722a3daafe3b4186f6b6457e060405160405180910390a35050565b600073ffffffffffffffffffffffffffffffffffffffff168273ffffffffffffffffffffffffffffffffffffffff161415610abd576040517f08c379a0000000000000000000000000000000000000000000000000000000008152600401610ab4906117ad565b60405180910390fd5b8273ffffffffffffffffffffffffffffffffffffffff16610add826104e5565b73ffffffffffffffffffffffffffffffffffffffff1614610b33576040517f08c379a0000000000000000000000000000000000000000000000000000000008152600401610b2a9061183f565b60405180910390fd5b610b7a600460008573ffffffffffffffffffffffffffffffffffffffff1673ffffffffffffffffffffffffffffffffffffffff168152602001908152602001600020610f05565b610bc1600460008473ffffffffffffffffffffffffffffffffffffffff1673ffffffffffffffffffffffffffffffffffffffff168152602001908152602001600020610f28565b816003600083815260200190815260200160002060006101000a81548173ffffffffffffffffffffffffffffffffffffffff021916908373ffffffffffffffffffffffffffffffffffffffff160217905550808273ffffffffffffffffffffffffffffffffffffffff168473ffffffffffffffffffffffffffffffffffffffff167fddf252ad1be2c89b69c2b068fc378daa952ba7f163c4a11628f55a4df523b3ef60405160405180910390a4505050565b6001600760008573ffffffffffffffffffffffffffffffffffffffff1673ffffffffffffffffffffffffffffffffffffffff168152602001908152602001600020805490501115610ddb57600760008473ffffffffffffffffffffffffffffffffffffffff1673ffffffffffffffffffffffffffffffffffffffff1681526020019081526020016000206001600760008673ffffffffffffffffffffffffffffffffffffffff1673ffffffffffffffffffffffffffffffffffffffff16815260200190815260200160002080549050610d4c919061188e565b81548110610d5d57610d5c6114a4565b5b9060005260206000200154600760008573ffffffffffffffffffffffffffffffffffffffff1673ffffffffffffffffffffffffffffffffffffffff168152602001908152602001600020600860008481526020019081526020016000205481548110610dcc57610dcb6114a4565b5b90600052602060002001819055505b600760008473ffffffffffffffffffffffffffffffffffffffff1673ffffffffffffffffffffffffffffffffffffffff168152602001908152602001600020805480610e2a57610e296118c2565b5b60019003818190600052602060002001600090559055600760008373ffffffffffffffffffffffffffffffffffffffff1673ffffffffffffffffffffffffffffffffffffffff168152602001908152602001600020805490506008600083815260200190815260200160002081905550600760008373ffffffffffffffffffffffffffffffffffffffff1673ffffffffffffffffffffffffffffffffffffffff168152602001908152602001600020819080600181540180825580915050600190039060005260206000200160009091909190915055505050565b610f1d60018260000154610f4e90919063ffffffff16565b816000018190555050565b6001816000016000828254610f3d91906118f1565b925050819055816000018190555050565b600082821115610f93576040517f08c379a0000000000000000000000000000000000000000000000000000000008152600401610f8a906119b9565b60405180910390fd5b8183610f9f919061188e565b905092915050565b600080fd5b60007fffffffff0000000000000000000000000000000000000000000000000000000082169050919050565b610fe181610fac565b8114610fec57600080fd5b50565b600081359050610ffe81610fd8565b92915050565b60006020828403121561101a57611019610fa7565b5b600061102884828501610fef565b91505092915050565b60008115159050919050565b61104681611031565b82525050565b6000602082019050611061600083018461103d565b92915050565b600081519050919050565b600082825260208201905092915050565b60005b838110156110a1578082015181840152602081019050611086565b838111156110b0576000848401525b50505050565b6000601f19601f8301169050919050565b60006110d282611067565b6110dc8185611072565b93506110ec818560208601611083565b6110f5816110b6565b840191505092915050565b6000602082019050818103600083015261111a81846110c7565b905092915050565b6000819050919050565b61113581611122565b82525050565b6000602082019050611150600083018461112c565b92915050565b600073ffffffffffffffffffffffffffffffffffffffff82169050919050565b600061118182611156565b9050919050565b61119181611176565b811461119c57600080fd5b50565b6000813590506111ae81611188565b92915050565b6111bd81611122565b81146111c857600080fd5b50565b6000813590506111da816111b4565b92915050565b6000806000606084860312156111f9576111f8610fa7565b5b60006112078682870161119f565b93505060206112188682870161119f565b9250506040611229868287016111cb565b9150509250925092565b6000806040838503121561124a57611249610fa7565b5b60006112588582860161119f565b9250506020611269858286016111cb565b9150509250929050565b60006020828403121561128957611288610fa7565b5b6000611297848285016111cb565b91505092915050565b6112a981611176565b82525050565b60006020820190506112c460008301846112a0565b92915050565b6000602082840312156112e0576112df610fa7565b5b60006112ee8482850161119f565b91505092915050565b600081519050919050565b600082825260208201905092915050565b6000819050602082019050919050565b61132c81611122565b82525050565b600061133e8383611323565b60208301905092915050565b6000602082019050919050565b6000611362826112f7565b61136c8185611302565b935061137783611313565b8060005b838110156113a857815161138f8882611332565b975061139a8361134a565b92505060018101905061137b565b5085935050505092915050565b600060208201905081810360008301526113cf8184611357565b905092915050565b7f4e487b7100000000000000000000000000000000000000000000000000000000600052602260045260246000fd5b6000600282049050600182168061141e57607f821691505b60208210811415611432576114316113d7565b5b50919050565b7f4f776e657220696e646578206973206f7574206f6620626f756e64732e000000600082015250565b600061146e601d83611072565b915061147982611438565b602082019050919050565b6000602082019050818103600083015261149d81611461565b9050919050565b7f4e487b7100000000000000000000000000000000000000000000000000000000600052603260045260246000fd5b7f496e646578206973206f7574206f6620626f756e64732e000000000000000000600082015250565b6000611509601783611072565b9150611514826114d3565b602082019050919050565b60006020820190508181036000830152611538816114fc565b9050919050565b7f4e46542063616e2774206265206f776e6564206279207a65726f20616464726560008201527f73732e0000000000000000000000000000000000000000000000000000000000602082015250565b600061159b602383611072565b91506115a68261153f565b604082019050919050565b600060208201905081810360008301526115ca8161158e565b9050919050565b7f43616e277420626520746865207a65726f20616464726573732e000000000000600082015250565b6000611607601a83611072565b9150611612826115d1565b602082019050919050565b60006020820190508181036000830152611636816115fa565b9050919050565b7f4f776e61626c653a2063616c6c6572206973206e6f7420746865206f776e6572600082015250565b6000611673602083611072565b915061167e8261163d565b602082019050919050565b600060208201905081810360008301526116a281611666565b9050919050565b7f4f776e61626c653a206e6577206f776e657220697320746865207a65726f206160008201527f6464726573730000000000000000000000000000000000000000000000000000602082015250565b6000611705602683611072565b9150611710826116a9565b604082019050919050565b60006020820190508181036000830152611734816116f8565b9050919050565b7f4e46542063616e2774207472616e7366657220746f207a65726f20616464726560008201527f73732e0000000000000000000000000000000000000000000000000000000000602082015250565b6000611797602383611072565b91506117a28261173b565b604082019050919050565b600060208201905081810360008301526117c68161178a565b9050919050565b7f5f66726f6d2061646472657373206973206e6f7420746865206f776e6572206f60008201527f662074686520746f6b656e2e0000000000000000000000000000000000000000602082015250565b6000611829602c83611072565b9150611834826117cd565b604082019050919050565b600060208201905081810360008301526118588161181c565b9050919050565b7f4e487b7100000000000000000000000000000000000000000000000000000000600052601160045260246000fd5b600061189982611122565b91506118a483611122565b9250828210156118b7576118b661185f565b5b828203905092915050565b7f4e487b7100000000000000000000000000000000000000000000000000000000600052603160045260246000fd5b60006118fc82611122565b915061190783611122565b9250827fffffffffffffffffffffffffffffffffffffffffffffffffffffffffffffffff0382111561193c5761193b61185f565b5b828201905092915050565b7f5375627472616374696f6e206f766572666c6f77206572726f7220766961205360008201527f6166654d61746800000000000000000000000000000000000000000000000000602082015250565b60006119a3602783611072565b91506119ae82611947565b604082019050919050565b600060208201905081810360008301526119d281611996565b905091905056fea264697066735822122071294ef111c4b381da7503aa2f1ac67d2c5ff36a85faf2648ed5db64528ce71464736f6c634300080a0033",
  "immutableReferences": {},
  "source": "// SPDX-License-Identifier: MIT\npragma solidity 0.8.10;\n\nimport './ERC721Metadata.sol';\nimport './ERC721Enumerable.sol';\nimport './Ownable.sol';\n\ncontract ERC721Connector is ERC721Metadata, ERC721Enumerable, Ownable {\n\n    constructor(string memory name, string memory symbol) ERC721Metadata(name, symbol) {\n\n    }\n\n}",
  "sourcePath": "/Users/majikk/Desktop/ConsenSys/blockchain-developer-bootcamp-final-project/src/contracts/ERC721Connector.sol",
  "compiler": {
    "name": "solc",
    "version": "0.8.10+commit.fc410830.Emscripten.clang"
  },
  "schemaVersion": "3.4.3",
  "updatedAt": "2021-11-20T11:40:12.521Z",
  "devdoc": {
    "kind": "dev",
    "methods": {
      "balanceOf(address)": {
        "details": "NFTs assigned to the zero address are considered invalid, and this  function throws for queries about the zero address.",
        "params": {
          "_owner": "An address for whom to query the balance"
        },
        "returns": {
          "_0": "The number of NFTs owned by `_owner`, possibly zero"
        }
      },
      "owner()": {
        "details": "Returns the address of the current owner."
      },
      "ownerOf(uint256)": {
        "details": "NFTs assigned to zero address are considered invalid, and queries  about them do throw.",
        "params": {
          "_tokenId": "The identifier for an NFT"
        },
        "returns": {
          "_0": "The address of the owner of the NFT"
        }
      },
      "renounceOwnership()": {
        "details": "Leaves the contract without owner. It will not be possible to call `onlyOwner` functions anymore. Can only be called by the current owner. NOTE: Renouncing ownership will leave the contract without an owner, thereby removing any functionality that is only available to the owner."
      },
      "tokenByIndex(uint256)": {
        "details": "Throws if `_index` >= `totalSupply()`.",
        "params": {
          "_index": "A counter less than `totalSupply()`"
        },
        "returns": {
          "_0": "The token identifier for the `_index`th NFT,  (sort order not specified)"
        }
      },
      "tokenOfOwnerByIndex(address,uint256)": {
        "details": "Throws if `_index` >= `balanceOf(_owner)` or if  `_owner` is the zero address, representing invalid NFTs.",
        "params": {
          "_index": "A counter less than `balanceOf(_owner)`",
          "_owner": "An address where we are interested in NFTs owned by them"
        },
        "returns": {
          "_0": "The token identifier for the `_index`th NFT assigned to `_owner`,   (sort order not specified)"
        }
      },
      "totalSupply()": {
        "returns": {
          "_0": "A count of valid NFTs tracked by this contract, where each one of  them has an assigned and queryable owner not equal to the zero address"
        }
      },
      "transferFrom(address,address,uint256)": {
        "details": "Throws unless `msg.sender` is the current owner, an authorized  operator, or the approved address for this NFT. Throws if `_from` is  not the current owner. Throws if `_to` is the zero address. Throws if  `_tokenId` is not a valid NFT.",
        "params": {
          "_from": "The current owner of the NFT",
          "_to": "The new owner",
          "_tokenId": "The NFT to transfer"
        }
      },
      "transferOwnership(address)": {
        "details": "Transfers ownership of the contract to a new account (`newOwner`). Can only be called by the current owner."
      }
    },
    "version": 1
  },
  "userdoc": {
    "kind": "user",
    "methods": {
      "balanceOf(address)": {
        "notice": "Count all NFTs assigned to an owner"
      },
      "name()": {
        "notice": "A descriptive name for a collection of NFTs in this contract"
      },
      "ownerOf(uint256)": {
        "notice": "Find the owner of an NFT"
      },
      "symbol()": {
        "notice": "An abbreviated name for NFTs in this contract"
      },
      "tokenByIndex(uint256)": {
        "notice": "Enumerate valid NFTs"
      },
      "tokenOfOwnerByIndex(address,uint256)": {
        "notice": "Enumerate NFTs assigned to an owner"
      },
      "totalSupply()": {
        "notice": "Count NFTs tracked by this contract"
      },
      "transferFrom(address,address,uint256)": {
        "notice": "Transfer ownership of an NFT -- THE CALLER IS RESPONSIBLE  TO CONFIRM THAT `_to` IS CAPABLE OF RECEIVING NFTS OR ELSE  THEY MAY BE PERMANENTLY LOST"
      }
    },
    "version": 1
  }
}