{
  "contractName": "ERC721Enumerable",
  "abi": [
    {
      "inputs": [],
      "stateMutability": "nonpayable",
      "type": "constructor"
    },
    {
      "anonymous": false,
      "inputs": [
        {
          "indexed": true,
          "internalType": "address",
          "name": "_from",
          "type": "address"
        },
        {
          "indexed": true,
          "internalType": "address",
          "name": "_to",
          "type": "address"
        },
        {
          "indexed": true,
          "internalType": "uint256",
          "name": "_tokenId",
          "type": "uint256"
        }
      ],
      "name": "Transfer",
      "type": "event"
    },
    {
      "inputs": [
        {
          "internalType": "address",
          "name": "_owner",
          "type": "address"
        }
      ],
      "name": "balanceOf",
      "outputs": [
        {
          "internalType": "uint256",
          "name": "",
          "type": "uint256"
        }
      ],
      "stateMutability": "view",
      "type": "function"
    },
    {
      "inputs": [
        {
          "internalType": "uint256",
          "name": "_tokenId",
          "type": "uint256"
        }
      ],
      "name": "ownerOf",
      "outputs": [
        {
          "internalType": "address",
          "name": "",
          "type": "address"
        }
      ],
      "stateMutability": "view",
      "type": "function"
    },
    {
      "inputs": [
        {
          "internalType": "bytes4",
          "name": "interfaceId",
          "type": "bytes4"
        }
      ],
      "name": "supportsInterface",
      "outputs": [
        {
          "internalType": "bool",
          "name": "",
          "type": "bool"
        }
      ],
      "stateMutability": "view",
      "type": "function"
    },
    {
      "inputs": [
        {
          "internalType": "address",
          "name": "_from",
          "type": "address"
        },
        {
          "internalType": "address",
          "name": "_to",
          "type": "address"
        },
        {
          "internalType": "uint256",
          "name": "_tokenId",
          "type": "uint256"
        }
      ],
      "name": "transferFrom",
      "outputs": [],
      "stateMutability": "nonpayable",
      "type": "function"
    },
    {
      "inputs": [],
      "name": "totalSupply",
      "outputs": [
        {
          "internalType": "uint256",
          "name": "",
          "type": "uint256"
        }
      ],
      "stateMutability": "view",
      "type": "function"
    },
    {
      "inputs": [
        {
          "internalType": "uint256",
          "name": "_index",
          "type": "uint256"
        }
      ],
      "name": "tokenByIndex",
      "outputs": [
        {
          "internalType": "uint256",
          "name": "",
          "type": "uint256"
        }
      ],
      "stateMutability": "view",
      "type": "function"
    },
    {
      "inputs": [
        {
          "internalType": "address",
          "name": "_owner",
          "type": "address"
        }
      ],
      "name": "tokensOfOwner",
      "outputs": [
        {
          "internalType": "uint256[]",
          "name": "",
          "type": "uint256[]"
        }
      ],
      "stateMutability": "view",
      "type": "function"
    },
    {
      "inputs": [
        {
          "internalType": "address",
          "name": "_owner",
          "type": "address"
        },
        {
          "internalType": "uint256",
          "name": "_index",
          "type": "uint256"
        }
      ],
      "name": "tokenOfOwnerByIndex",
      "outputs": [
        {
          "internalType": "uint256",
          "name": "",
          "type": "uint256"
        }
      ],
      "stateMutability": "view",
      "type": "function"
    }
  ],
  "bytecode": "0x60806040523480156200001157600080fd5b50620000437f01ffc9a7a5cef8baa21ed3c5c0d7e23accb804b619e9333b597f47a0d84076e26200013360201b60201c565b620000b87f22c82707ba960a14c7592ffb6b8cfaa073fed0048a84cc7fa41f6b5bd8e7f2e47f3a6eb71757dfc6e784c1459d26270140c2c147d95ca985c80026fc5301c3eca17f8a7e378434598edc36d108689a030cbc9d7d465de4f74c71bae1028eed6a881b18186200013360201b60201c565b6200012d7f8230223f691b981717299fae9549350a0d894555723531f02108b1f522c1a7977f6da5e1284143cdd2d15038a59bde3be031250f00291d64494c12d967b3a4e0c37fc53637662700e6c65104059db8bba34439e0c32483ab7c34e3ccae52c739549518186200013360201b60201c565b6200028e565b63ffffffff60e01b817bffffffffffffffffffffffffffffffffffffffffffffffffffffffff191614156200019f576040517f08c379a000000000000000000000000000000000000000000000000000000000815260040162000196906200026c565b60405180910390fd5b6001600080837bffffffffffffffffffffffffffffffffffffffffffffffffffffffff19167bffffffffffffffffffffffffffffffffffffffffffffffffffffffff1916815260200190815260200160002060006101000a81548160ff02191690831515021790555050565b600082825260208201905092915050565b7f496e76616c696420726571756573742e00000000000000000000000000000000600082015250565b6000620002546010836200020b565b915062000261826200021c565b602082019050919050565b60006020820190508181036000830152620002878162000245565b9050919050565b6113a3806200029e6000396000f3fe608060405234801561001057600080fd5b50600436106100885760003560e01c80634f6ccce71161005b5780634f6ccce7146101275780636352211e1461015757806370a08231146101875780638462151c146101b757610088565b806301ffc9a71461008d57806318160ddd146100bd57806323b872dd146100db5780632f745c59146100f7575b600080fd5b6100a760048036038101906100a29190610ba1565b6101e7565b6040516100b49190610be9565b60405180910390f35b6100c561024e565b6040516100d29190610c1d565b60405180910390f35b6100f560048036038101906100f09190610cc2565b61025b565b005b610111600480360381019061010c9190610d15565b61026b565b60405161011e9190610c1d565b60405180910390f35b610141600480360381019061013c9190610d55565b61031b565b60405161014e9190610c1d565b60405180910390f35b610171600480360381019061016c9190610d55565b61038c565b60405161017e9190610d91565b60405180910390f35b6101a1600480360381019061019c9190610dac565b61046b565b6040516101ae9190610c1d565b60405180910390f35b6101d160048036038101906101cc9190610dac565b61052a565b6040516101de9190610e97565b60405180910390f35b6000806000837bffffffffffffffffffffffffffffffffffffffffffffffffffffffff19167bffffffffffffffffffffffffffffffffffffffffffffffffffffffff1916815260200190815260200160002060009054906101000a900460ff169050919050565b6000600380549050905090565b6102668383836105c1565b505050565b60006102768361046b565b82106102b7576040517f08c379a00000000000000000000000000000000000000000000000000000000081526004016102ae90610f16565b60405180910390fd5b600560008473ffffffffffffffffffffffffffffffffffffffff1673ffffffffffffffffffffffffffffffffffffffff168152602001908152602001600020828154811061030857610307610f36565b5b9060005260206000200154905092915050565b600061032561024e565b8210610366576040517f08c379a000000000000000000000000000000000000000000000000000000000815260040161035d90610fb1565b60405180910390fd5b6003828154811061037a57610379610f36565b5b90600052602060002001549050919050565b60008073ffffffffffffffffffffffffffffffffffffffff166001600084815260200190815260200160002060009054906101000a900473ffffffffffffffffffffffffffffffffffffffff1673ffffffffffffffffffffffffffffffffffffffff161415610430576040517f08c379a000000000000000000000000000000000000000000000000000000000815260040161042790611043565b60405180910390fd5b6001600083815260200190815260200160002060009054906101000a900473ffffffffffffffffffffffffffffffffffffffff169050919050565b60008073ffffffffffffffffffffffffffffffffffffffff168273ffffffffffffffffffffffffffffffffffffffff1614156104dc576040517f08c379a00000000000000000000000000000000000000000000000000000000081526004016104d3906110af565b60405180910390fd5b610523600260008473ffffffffffffffffffffffffffffffffffffffff1673ffffffffffffffffffffffffffffffffffffffff1681526020019081526020016000206105dc565b9050919050565b6060600560008373ffffffffffffffffffffffffffffffffffffffff1673ffffffffffffffffffffffffffffffffffffffff1681526020019081526020016000208054806020026020016040519081016040528092919081815260200182805480156105b557602002820191906000526020600020905b8154815260200190600101908083116105a1575b50505050509050919050565b6105cc8383836105ea565b6105d7838383610810565b505050565b600081600001549050919050565b600073ffffffffffffffffffffffffffffffffffffffff168273ffffffffffffffffffffffffffffffffffffffff16141561065a576040517f08c379a000000000000000000000000000000000000000000000000000000000815260040161065190611141565b60405180910390fd5b8273ffffffffffffffffffffffffffffffffffffffff1661067a8261038c565b73ffffffffffffffffffffffffffffffffffffffff16146106d0576040517f08c379a00000000000000000000000000000000000000000000000000000000081526004016106c7906111d3565b60405180910390fd5b610717600260008573ffffffffffffffffffffffffffffffffffffffff1673ffffffffffffffffffffffffffffffffffffffff168152602001908152602001600020610aa2565b61075e600260008473ffffffffffffffffffffffffffffffffffffffff1673ffffffffffffffffffffffffffffffffffffffff168152602001908152602001600020610ac5565b816001600083815260200190815260200160002060006101000a81548173ffffffffffffffffffffffffffffffffffffffff021916908373ffffffffffffffffffffffffffffffffffffffff160217905550808273ffffffffffffffffffffffffffffffffffffffff168473ffffffffffffffffffffffffffffffffffffffff167fddf252ad1be2c89b69c2b068fc378daa952ba7f163c4a11628f55a4df523b3ef60405160405180910390a4505050565b6001600560008573ffffffffffffffffffffffffffffffffffffffff1673ffffffffffffffffffffffffffffffffffffffff16815260200190815260200160002080549050111561097857600560008473ffffffffffffffffffffffffffffffffffffffff1673ffffffffffffffffffffffffffffffffffffffff1681526020019081526020016000206001600560008673ffffffffffffffffffffffffffffffffffffffff1673ffffffffffffffffffffffffffffffffffffffff168152602001908152602001600020805490506108e99190611222565b815481106108fa576108f9610f36565b5b9060005260206000200154600560008573ffffffffffffffffffffffffffffffffffffffff1673ffffffffffffffffffffffffffffffffffffffff16815260200190815260200160002060066000848152602001908152602001600020548154811061096957610968610f36565b5b90600052602060002001819055505b600560008473ffffffffffffffffffffffffffffffffffffffff1673ffffffffffffffffffffffffffffffffffffffff1681526020019081526020016000208054806109c7576109c6611256565b5b60019003818190600052602060002001600090559055600560008373ffffffffffffffffffffffffffffffffffffffff1673ffffffffffffffffffffffffffffffffffffffff168152602001908152602001600020805490506006600083815260200190815260200160002081905550600560008373ffffffffffffffffffffffffffffffffffffffff1673ffffffffffffffffffffffffffffffffffffffff168152602001908152602001600020819080600181540180825580915050600190039060005260206000200160009091909190915055505050565b610aba60018260000154610aeb90919063ffffffff16565b816000018190555050565b6001816000016000828254610ada9190611285565b925050819055816000018190555050565b600082821115610b30576040517f08c379a0000000000000000000000000000000000000000000000000000000008152600401610b279061134d565b60405180910390fd5b8183610b3c9190611222565b905092915050565b600080fd5b60007fffffffff0000000000000000000000000000000000000000000000000000000082169050919050565b610b7e81610b49565b8114610b8957600080fd5b50565b600081359050610b9b81610b75565b92915050565b600060208284031215610bb757610bb6610b44565b5b6000610bc584828501610b8c565b91505092915050565b60008115159050919050565b610be381610bce565b82525050565b6000602082019050610bfe6000830184610bda565b92915050565b6000819050919050565b610c1781610c04565b82525050565b6000602082019050610c326000830184610c0e565b92915050565b600073ffffffffffffffffffffffffffffffffffffffff82169050919050565b6000610c6382610c38565b9050919050565b610c7381610c58565b8114610c7e57600080fd5b50565b600081359050610c9081610c6a565b92915050565b610c9f81610c04565b8114610caa57600080fd5b50565b600081359050610cbc81610c96565b92915050565b600080600060608486031215610cdb57610cda610b44565b5b6000610ce986828701610c81565b9350506020610cfa86828701610c81565b9250506040610d0b86828701610cad565b9150509250925092565b60008060408385031215610d2c57610d2b610b44565b5b6000610d3a85828601610c81565b9250506020610d4b85828601610cad565b9150509250929050565b600060208284031215610d6b57610d6a610b44565b5b6000610d7984828501610cad565b91505092915050565b610d8b81610c58565b82525050565b6000602082019050610da66000830184610d82565b92915050565b600060208284031215610dc257610dc1610b44565b5b6000610dd084828501610c81565b91505092915050565b600081519050919050565b600082825260208201905092915050565b6000819050602082019050919050565b610e0e81610c04565b82525050565b6000610e208383610e05565b60208301905092915050565b6000602082019050919050565b6000610e4482610dd9565b610e4e8185610de4565b9350610e5983610df5565b8060005b83811015610e8a578151610e718882610e14565b9750610e7c83610e2c565b925050600181019050610e5d565b5085935050505092915050565b60006020820190508181036000830152610eb18184610e39565b905092915050565b600082825260208201905092915050565b7f4f776e657220696e646578206973206f7574206f6620626f756e64732e000000600082015250565b6000610f00601d83610eb9565b9150610f0b82610eca565b602082019050919050565b60006020820190508181036000830152610f2f81610ef3565b9050919050565b7f4e487b7100000000000000000000000000000000000000000000000000000000600052603260045260246000fd5b7f496e646578206973206f7574206f6620626f756e64732e000000000000000000600082015250565b6000610f9b601783610eb9565b9150610fa682610f65565b602082019050919050565b60006020820190508181036000830152610fca81610f8e565b9050919050565b7f4e46542063616e2774206265206f776e6564206279207a65726f20616464726560008201527f73732e0000000000000000000000000000000000000000000000000000000000602082015250565b600061102d602383610eb9565b915061103882610fd1565b604082019050919050565b6000602082019050818103600083015261105c81611020565b9050919050565b7f43616e277420626520746865207a65726f20616464726573732e000000000000600082015250565b6000611099601a83610eb9565b91506110a482611063565b602082019050919050565b600060208201905081810360008301526110c88161108c565b9050919050565b7f4e46542063616e2774207472616e7366657220746f207a65726f20616464726560008201527f73732e0000000000000000000000000000000000000000000000000000000000602082015250565b600061112b602383610eb9565b9150611136826110cf565b604082019050919050565b6000602082019050818103600083015261115a8161111e565b9050919050565b7f5f66726f6d2061646472657373206973206e6f7420746865206f776e6572206f60008201527f662074686520746f6b656e2e0000000000000000000000000000000000000000602082015250565b60006111bd602c83610eb9565b91506111c882611161565b604082019050919050565b600060208201905081810360008301526111ec816111b0565b9050919050565b7f4e487b7100000000000000000000000000000000000000000000000000000000600052601160045260246000fd5b600061122d82610c04565b915061123883610c04565b92508282101561124b5761124a6111f3565b5b828203905092915050565b7f4e487b7100000000000000000000000000000000000000000000000000000000600052603160045260246000fd5b600061129082610c04565b915061129b83610c04565b9250827fffffffffffffffffffffffffffffffffffffffffffffffffffffffffffffffff038211156112d0576112cf6111f3565b5b828201905092915050565b7f5375627472616374696f6e206f766572666c6f77206572726f7220766961205360008201527f6166654d61746800000000000000000000000000000000000000000000000000602082015250565b6000611337602783610eb9565b9150611342826112db565b604082019050919050565b600060208201905081810360008301526113668161132a565b905091905056fea26469706673582212209211cb2af3d1ded2c0e39b2b10e918940808270dec165917afa3cda8a0dd890c64736f6c634300080a0033",
  "immutableReferences": {},
  "source": "/// SPDX-License-Identifier: MIT\npragma solidity 0.8.10;\n\nimport './ERC721.sol';\nimport './interfaces/IERC721Enumerable.sol';\n\n/// @title Enumerable contract\n/// @notice Optional extension for ERC-721 Standard\n/// @author CryptoByNight\n\ncontract ERC721Enumerable is ERC721, IERC721Enumerable {\n\n    uint256[] private tokenList;\n\n    /// @dev TokenId to tokenList position\n    mapping(uint256 => uint256) private tokenListIndex;\n    /// @dev Owner to list of all owned token Ids\n    mapping(address => uint256[]) private ownedTokens;\n    /// @dev TokenId to index of the owner's token list\n    mapping(uint256 => uint256) private ownedTokenIndex;\n\n    constructor() {\n        registerInterface(bytes4(\n            keccak256('totalSupply(bytes4)')^keccak256('tokenByIndex(bytes4)')^keccak256('tokenOfOwnerByIndex(bytes4)')\n        ));\n    }\n\n    /// @notice Total supply of tokens \n    /// @return Total supply of tokens\n    function totalSupply() public view override returns (uint256) {\n        return tokenList.length;\n    }\n\n    /// @dev Retrieve token based on position in array\n    /// @param _index Array index of token\n    /// @return Token number\n    function tokenByIndex(uint256 _index) public view override returns (uint256) {\n        require(_index < totalSupply(), \"Index is out of bounds.\");\n        return tokenList[_index];\n    }\n\n    /// @notice List all tokens of owner from address\n    /// @param _owner Address of owner\n    /// @return Array of owned tokens\n    function tokensOfOwner(address _owner) public view returns (uint256[] memory) {\n        return ownedTokens[_owner];\n    }\n\n    /// @notice Find token of an owner by index in their list of owned tokens\n    /// @param _owner Address of owner\n    /// @param _index Array index of owned token from owner's token index\n    /// @return Token ID for owned token\n    function tokenOfOwnerByIndex(address _owner, uint256 _index) public view override returns (uint256) {\n        require(_index < balanceOf(_owner), \"Owner index is out of bounds.\");\n        return ownedTokens[_owner][_index];\n    }\n\n    /// @notice Override mint function to update token supply and owner\n    /// @param _to Address to mint token\n    /// @param _tokenId Token ID to mint\n    /// @inheritdoc ERC721\n    function _mint(address _to, uint256 _tokenId) internal override (ERC721) {\n        //Super allows us to grab the mint function from ERC721 contract\n        super._mint(_to, _tokenId);\n        // Need to add tokens to owner and also add to total supply\n        _addTokensToSupplyAndIndex(_tokenId);\n        _addTokensToOwner(_to, _tokenId);\n    }\n\n    /// @notice Override transfer function to update owner and token data\n    /// @param _from Address that is sending token\n    /// @param _to Address to send token\n    /// @param _tokenId Token ID to transfer\n    /// @inheritdoc ERC721\n    function _transferFrom(address _from, address _to, uint256 _tokenId) internal override (ERC721) {\n        super._transferFrom(_from, _to, _tokenId);\n\n        _updateTokensToOwner(_from, _to, _tokenId);\n    }\n\n    /// @notice Add tokens to the tokenList array and set the index location for the newly added token\n    /// @param _tokenId Token ID to be added to supply and index\n    function _addTokensToSupplyAndIndex(uint256 _tokenId) private {\n        tokenListIndex[_tokenId] = tokenList.length;\n        tokenList.push(_tokenId);\n    }\n\n    /// @notice Add tokens to owner so we can track and call to front end\n    /// @param _to Address token is being sent\n    /// @param _tokenId Token ID for token being sent\n    function _addTokensToOwner(address _to, uint256 _tokenId) private {\n        // ownedTokenIndex tokenId needs to be set to the address of the ownedTokens position\n        ownedTokenIndex[_tokenId] = ownedTokens[_to].length;\n        // Need to add new token for owner's ownedTokens\n        ownedTokens[_to].push(_tokenId);\n    }\n\n    /// @notice Update tokens of owner for transfers\n    /// @param _from Address token is transferred from\n    /// @param _to Address where token is being transferred\n    /// @param _tokenId Token ID being transferred\n    /// @dev This function was created to allow tracking and display of individually owned tokens on the front end\n    function _updateTokensToOwner(address _from, address _to, uint256 _tokenId) private {\n        /// Need to remove from sender\n        if (ownedTokens[_from].length > 1) {\n            ownedTokens[_from][ownedTokenIndex[_tokenId]] = ownedTokens[_from][ownedTokens[_from].length - 1];\n        }\n        ownedTokens[_from].pop();\n        \n        /// ownedTokenIndex tokenId needs to be set to the address of the ownedTokens position\n        ownedTokenIndex[_tokenId] = ownedTokens[_to].length;\n        /// Need to add new token for owner's ownedTokens\n        ownedTokens[_to].push(_tokenId);\n        \n    }\n\n}",
  "sourcePath": "/Users/majikk/Desktop/ConsenSys/blockchain-developer-bootcamp-final-project/src/contracts/ERC721Enumerable.sol",
  "compiler": {
    "name": "solc",
    "version": "0.8.10+commit.fc410830.Emscripten.clang"
  },
  "schemaVersion": "3.4.3",
  "updatedAt": "2021-11-21T14:18:38.137Z",
  "devdoc": {
    "author": "CryptoByNight",
    "kind": "dev",
    "methods": {
      "balanceOf(address)": {
        "params": {
          "_owner": "Owner's address"
        },
        "returns": {
          "_0": "The current token count for the owner"
        }
      },
      "ownerOf(uint256)": {
        "params": {
          "_tokenId": "Token ID to identify diamond"
        },
        "returns": {
          "_0": "Address of owner of the diamond"
        }
      },
      "supportsInterface(bytes4)": {
        "params": {
          "interfaceId": "Registered interface ID"
        },
        "returns": {
          "_0": "True or false if interface is registered and supported"
        }
      },
      "tokenByIndex(uint256)": {
        "details": "Retrieve token based on position in array",
        "params": {
          "_index": "Array index of token"
        },
        "returns": {
          "_0": "Token number"
        }
      },
      "tokenOfOwnerByIndex(address,uint256)": {
        "params": {
          "_index": "Array index of owned token from owner's token index",
          "_owner": "Address of owner"
        },
        "returns": {
          "_0": "Token ID for owned token"
        }
      },
      "tokensOfOwner(address)": {
        "params": {
          "_owner": "Address of owner"
        },
        "returns": {
          "_0": "Array of owned tokens"
        }
      },
      "totalSupply()": {
        "returns": {
          "_0": "Total supply of tokens"
        }
      },
      "transferFrom(address,address,uint256)": {
        "params": {
          "_from": "From address",
          "_to": "To address to send the token",
          "_tokenId": "Token number to send"
        }
      }
    },
    "stateVariables": {
      "ownedTokenIndex": {
        "details": "TokenId to index of the owner's token list"
      },
      "ownedTokens": {
        "details": "Owner to list of all owned token Ids"
      },
      "tokenListIndex": {
        "details": "TokenId to tokenList position"
      }
    },
    "title": "Enumerable contract",
    "version": 1
  },
  "userdoc": {
    "kind": "user",
    "methods": {
      "balanceOf(address)": {
        "notice": "Get total tokens owned by user"
      },
      "ownerOf(uint256)": {
        "notice": "Get owner of a specific token"
      },
      "supportsInterface(bytes4)": {
        "notice": "Query if a contract implements an interface"
      },
      "tokenOfOwnerByIndex(address,uint256)": {
        "notice": "Find token of an owner by index in their list of owned tokens"
      },
      "tokensOfOwner(address)": {
        "notice": "List all tokens of owner from address"
      },
      "totalSupply()": {
        "notice": "Total supply of tokens "
      },
      "transferFrom(address,address,uint256)": {
        "notice": "Transfer token from one user to another"
      }
    },
    "notice": "Optional extension for ERC-721 Standard",
    "version": 1
  }
}