{
  "contractName": "Migrations",
  "abi": [
    {
      "anonymous": false,
      "inputs": [
        {
          "indexed": true,
          "internalType": "address",
          "name": "previousOwner",
          "type": "address"
        },
        {
          "indexed": true,
          "internalType": "address",
          "name": "newOwner",
          "type": "address"
        }
      ],
      "name": "OwnershipTransferred",
      "type": "event"
    },
    {
      "inputs": [],
      "name": "last_completed_migration",
      "outputs": [
        {
          "internalType": "uint256",
          "name": "",
          "type": "uint256"
        }
      ],
      "stateMutability": "view",
      "type": "function",
      "constant": true
    },
    {
      "inputs": [],
      "name": "owner",
      "outputs": [
        {
          "internalType": "address",
          "name": "",
          "type": "address"
        }
      ],
      "stateMutability": "view",
      "type": "function",
      "constant": true
    },
    {
      "inputs": [],
      "name": "renounceOwnership",
      "outputs": [],
      "stateMutability": "nonpayable",
      "type": "function"
    },
    {
      "inputs": [
        {
          "internalType": "address",
          "name": "newOwner",
          "type": "address"
        }
      ],
      "name": "transferOwnership",
      "outputs": [],
      "stateMutability": "nonpayable",
      "type": "function"
    },
    {
      "inputs": [
        {
          "internalType": "uint256",
          "name": "completed",
          "type": "uint256"
        }
      ],
      "name": "setCompleted",
      "outputs": [],
      "stateMutability": "nonpayable",
      "type": "function"
    },
    {
      "inputs": [
        {
          "internalType": "address",
          "name": "new_address",
          "type": "address"
        }
      ],
      "name": "upgrade",
      "outputs": [],
      "stateMutability": "nonpayable",
      "type": "function"
    }
  ],
  "bytecode": "0x608060405234801561001057600080fd5b5061002d61002261003260201b60201c565b61003a60201b60201c565b6100fe565b600033905090565b60008060009054906101000a900473ffffffffffffffffffffffffffffffffffffffff169050816000806101000a81548173ffffffffffffffffffffffffffffffffffffffff021916908373ffffffffffffffffffffffffffffffffffffffff1602179055508173ffffffffffffffffffffffffffffffffffffffff168173ffffffffffffffffffffffffffffffffffffffff167f8be0079c531659141344cd1fd0a4f28419497f9722a3daafe3b4186f6b6457e060405160405180910390a35050565b6107808061010d6000396000f3fe608060405234801561001057600080fd5b50600436106100625760003560e01c80630900f01014610067578063445df0ac14610083578063715018a6146100a15780638da5cb5b146100ab578063f2fde38b146100c9578063fdacd576146100e5575b600080fd5b610081600480360381019061007c9190610557565b610101565b005b61008b6101f3565b604051610098919061059d565b60405180910390f35b6100a96101f9565b005b6100b3610281565b6040516100c091906105c7565b60405180910390f35b6100e360048036038101906100de9190610557565b6102aa565b005b6100ff60048036038101906100fa919061060e565b6103a2565b005b610109610428565b73ffffffffffffffffffffffffffffffffffffffff16610127610281565b73ffffffffffffffffffffffffffffffffffffffff161461017d576040517f08c379a000000000000000000000000000000000000000000000000000000000815260040161017490610698565b60405180910390fd5b60008190508073ffffffffffffffffffffffffffffffffffffffff1663fdacd5766001546040518263ffffffff1660e01b81526004016101bd919061059d565b600060405180830381600087803b1580156101d757600080fd5b505af11580156101eb573d6000803e3d6000fd5b505050505050565b60015481565b610201610428565b73ffffffffffffffffffffffffffffffffffffffff1661021f610281565b73ffffffffffffffffffffffffffffffffffffffff1614610275576040517f08c379a000000000000000000000000000000000000000000000000000000000815260040161026c90610698565b60405180910390fd5b61027f6000610430565b565b60008060009054906101000a900473ffffffffffffffffffffffffffffffffffffffff16905090565b6102b2610428565b73ffffffffffffffffffffffffffffffffffffffff166102d0610281565b73ffffffffffffffffffffffffffffffffffffffff1614610326576040517f08c379a000000000000000000000000000000000000000000000000000000000815260040161031d90610698565b60405180910390fd5b600073ffffffffffffffffffffffffffffffffffffffff168173ffffffffffffffffffffffffffffffffffffffff161415610396576040517f08c379a000000000000000000000000000000000000000000000000000000000815260040161038d9061072a565b60405180910390fd5b61039f81610430565b50565b6103aa610428565b73ffffffffffffffffffffffffffffffffffffffff166103c8610281565b73ffffffffffffffffffffffffffffffffffffffff161461041e576040517f08c379a000000000000000000000000000000000000000000000000000000000815260040161041590610698565b60405180910390fd5b8060018190555050565b600033905090565b60008060009054906101000a900473ffffffffffffffffffffffffffffffffffffffff169050816000806101000a81548173ffffffffffffffffffffffffffffffffffffffff021916908373ffffffffffffffffffffffffffffffffffffffff1602179055508173ffffffffffffffffffffffffffffffffffffffff168173ffffffffffffffffffffffffffffffffffffffff167f8be0079c531659141344cd1fd0a4f28419497f9722a3daafe3b4186f6b6457e060405160405180910390a35050565b600080fd5b600073ffffffffffffffffffffffffffffffffffffffff82169050919050565b6000610524826104f9565b9050919050565b61053481610519565b811461053f57600080fd5b50565b6000813590506105518161052b565b92915050565b60006020828403121561056d5761056c6104f4565b5b600061057b84828501610542565b91505092915050565b6000819050919050565b61059781610584565b82525050565b60006020820190506105b2600083018461058e565b92915050565b6105c181610519565b82525050565b60006020820190506105dc60008301846105b8565b92915050565b6105eb81610584565b81146105f657600080fd5b50565b600081359050610608816105e2565b92915050565b600060208284031215610624576106236104f4565b5b6000610632848285016105f9565b91505092915050565b600082825260208201905092915050565b7f4f776e61626c653a2063616c6c6572206973206e6f7420746865206f776e6572600082015250565b600061068260208361063b565b915061068d8261064c565b602082019050919050565b600060208201905081810360008301526106b181610675565b9050919050565b7f4f776e61626c653a206e6577206f776e657220697320746865207a65726f206160008201527f6464726573730000000000000000000000000000000000000000000000000000602082015250565b600061071460268361063b565b915061071f826106b8565b604082019050919050565b6000602082019050818103600083015261074381610707565b905091905056fea26469706673582212205045165de13a12d30116a23ec0a1c61ba2d2a6ba049e3387c94a81a2d7128abb64736f6c634300080a0033",
  "immutableReferences": {},
  "source": "/// SPDX-License-Identifier: MIT\npragma solidity 0.8.10;\n\nimport '../../node_modules/@openzeppelin/contracts/access/Ownable.sol';\n\n/// @title Migrations contract\n/// @notice Contract allows updates and upgrades for migrations\n/// @author CryptoByNight\n\ncontract Migrations is Ownable {\n  uint public last_completed_migration;\n\n  function setCompleted(uint completed) public onlyOwner {\n    last_completed_migration = completed;\n  }\n\n  /// @dev Make contract upgradable for the owner\n  function upgrade(address new_address) public onlyOwner {\n    Migrations upgraded = Migrations(new_address);\n    upgraded.setCompleted(last_completed_migration);\n  }\n\n}\n",
  "sourcePath": "/Users/majikk/Desktop/ConsenSys/blockchain-developer-bootcamp-final-project/src/contracts/Migrations.sol",
  "compiler": {
    "name": "solc",
    "version": "0.8.10+commit.fc410830.Emscripten.clang"
  },
  "schemaVersion": "3.4.3",
  "updatedAt": "2021-11-23T17:33:50.668Z",
  "networkType": "ethereum",
  "devdoc": {
    "author": "CryptoByNight",
    "kind": "dev",
    "methods": {
      "owner()": {
        "details": "Returns the address of the current owner."
      },
      "renounceOwnership()": {
        "details": "Leaves the contract without owner. It will not be possible to call `onlyOwner` functions anymore. Can only be called by the current owner. NOTE: Renouncing ownership will leave the contract without an owner, thereby removing any functionality that is only available to the owner."
      },
      "transferOwnership(address)": {
        "details": "Transfers ownership of the contract to a new account (`newOwner`). Can only be called by the current owner."
      },
      "upgrade(address)": {
        "details": "Make contract upgradable for the owner"
      }
    },
    "title": "Migrations contract",
    "version": 1
  },
  "userdoc": {
    "kind": "user",
    "methods": {},
    "notice": "Contract allows updates and upgrades for migrations",
    "version": 1
  }
}